{
  "contractName": "BillOfLading",
  "abi": [
    {
      "inputs": [
        {
          "internalType": "string",
          "name": "name",
          "type": "string"
        },
        {
          "internalType": "string",
          "name": "symbol",
          "type": "string"
        },
        {
          "internalType": "string",
          "name": "baseURI",
          "type": "string"
        },
        {
          "internalType": "address",
          "name": "dbolContract",
          "type": "address"
        }
      ],
      "stateMutability": "nonpayable",
      "type": "constructor"
    },
    {
      "anonymous": false,
      "inputs": [
        {
          "indexed": true,
          "internalType": "address",
          "name": "owner",
          "type": "address"
        },
        {
          "indexed": true,
          "internalType": "address",
          "name": "approved",
          "type": "address"
        },
        {
          "indexed": true,
          "internalType": "uint256",
          "name": "tokenId",
          "type": "uint256"
        }
      ],
      "name": "Approval",
      "type": "event"
    },
    {
      "anonymous": false,
      "inputs": [
        {
          "indexed": true,
          "internalType": "address",
          "name": "owner",
          "type": "address"
        },
        {
          "indexed": true,
          "internalType": "address",
          "name": "operator",
          "type": "address"
        },
        {
          "indexed": false,
          "internalType": "bool",
          "name": "approved",
          "type": "bool"
        }
      ],
      "name": "ApprovalForAll",
      "type": "event"
    },
    {
      "anonymous": false,
      "inputs": [
        {
          "components": [
            {
              "internalType": "address",
              "name": "driver",
              "type": "address"
            },
            {
              "internalType": "string",
              "name": "serialNumber",
              "type": "string"
            },
            {
              "components": [
                {
                  "internalType": "uint8",
                  "name": "degree",
                  "type": "uint8"
                },
                {
                  "internalType": "uint8",
                  "name": "minute",
                  "type": "uint8"
                },
                {
                  "internalType": "uint16",
                  "name": "second",
                  "type": "uint16"
                },
                {
                  "internalType": "enum BillOfLading.CardinalDirections",
                  "name": "cardinalDirection",
                  "type": "uint8"
                }
              ],
              "internalType": "struct BillOfLading.GeoPosition[2]",
              "name": "origin",
              "type": "tuple[2]"
            },
            {
              "components": [
                {
                  "internalType": "uint8",
                  "name": "degree",
                  "type": "uint8"
                },
                {
                  "internalType": "uint8",
                  "name": "minute",
                  "type": "uint8"
                },
                {
                  "internalType": "uint16",
                  "name": "second",
                  "type": "uint16"
                },
                {
                  "internalType": "enum BillOfLading.CardinalDirections",
                  "name": "cardinalDirection",
                  "type": "uint8"
                }
              ],
              "internalType": "struct BillOfLading.GeoPosition[2]",
              "name": "destination",
              "type": "tuple[2]"
            },
            {
              "internalType": "uint256",
              "name": "quantity",
              "type": "uint256"
            }
          ],
          "indexed": false,
          "internalType": "struct BillOfLading.MintArgs",
          "name": "arguments",
          "type": "tuple"
        },
        {
          "indexed": true,
          "internalType": "address",
          "name": "to",
          "type": "address"
        }
      ],
      "name": "CreateBill",
      "type": "event"
    },
    {
      "anonymous": false,
      "inputs": [
        {
          "indexed": true,
          "internalType": "uint256",
          "name": "tokenId",
          "type": "uint256"
        },
        {
          "indexed": false,
          "internalType": "bytes32",
          "name": "oldData",
          "type": "bytes32"
        },
        {
          "indexed": false,
          "internalType": "bytes32",
          "name": "newData",
          "type": "bytes32"
        }
      ],
      "name": "DataUpdated",
      "type": "event"
    },
    {
      "anonymous": false,
      "inputs": [
        {
          "indexed": false,
          "internalType": "address",
          "name": "account",
          "type": "address"
        }
      ],
      "name": "Paused",
      "type": "event"
    },
    {
      "anonymous": false,
      "inputs": [
        {
          "indexed": true,
          "internalType": "bytes32",
          "name": "role",
          "type": "bytes32"
        },
        {
          "indexed": true,
          "internalType": "bytes32",
          "name": "previousAdminRole",
          "type": "bytes32"
        },
        {
          "indexed": true,
          "internalType": "bytes32",
          "name": "newAdminRole",
          "type": "bytes32"
        }
      ],
      "name": "RoleAdminChanged",
      "type": "event"
    },
    {
      "anonymous": false,
      "inputs": [
        {
          "indexed": true,
          "internalType": "bytes32",
          "name": "role",
          "type": "bytes32"
        },
        {
          "indexed": true,
          "internalType": "address",
          "name": "account",
          "type": "address"
        },
        {
          "indexed": true,
          "internalType": "address",
          "name": "sender",
          "type": "address"
        }
      ],
      "name": "RoleGranted",
      "type": "event"
    },
    {
      "anonymous": false,
      "inputs": [
        {
          "indexed": true,
          "internalType": "bytes32",
          "name": "role",
          "type": "bytes32"
        },
        {
          "indexed": true,
          "internalType": "address",
          "name": "account",
          "type": "address"
        },
        {
          "indexed": true,
          "internalType": "address",
          "name": "sender",
          "type": "address"
        }
      ],
      "name": "RoleRevoked",
      "type": "event"
    },
    {
      "anonymous": false,
      "inputs": [
        {
          "indexed": true,
          "internalType": "address",
          "name": "from",
          "type": "address"
        },
        {
          "indexed": true,
          "internalType": "address",
          "name": "to",
          "type": "address"
        },
        {
          "indexed": true,
          "internalType": "uint256",
          "name": "tokenId",
          "type": "uint256"
        }
      ],
      "name": "Transfer",
      "type": "event"
    },
    {
      "anonymous": false,
      "inputs": [
        {
          "indexed": false,
          "internalType": "address",
          "name": "account",
          "type": "address"
        }
      ],
      "name": "Unpaused",
      "type": "event"
    },
    {
      "inputs": [],
      "name": "DEFAULT_ADMIN_ROLE",
      "outputs": [
        {
          "internalType": "bytes32",
          "name": "",
          "type": "bytes32"
        }
      ],
      "stateMutability": "view",
      "type": "function"
    },
    {
      "inputs": [],
      "name": "MINTER_ROLE",
      "outputs": [
        {
          "internalType": "bytes32",
          "name": "",
          "type": "bytes32"
        }
      ],
      "stateMutability": "view",
      "type": "function"
    },
    {
      "inputs": [],
      "name": "PAUSER_ROLE",
      "outputs": [
        {
          "internalType": "bytes32",
          "name": "",
          "type": "bytes32"
        }
      ],
      "stateMutability": "view",
      "type": "function"
    },
    {
      "inputs": [
        {
          "internalType": "address",
          "name": "to",
          "type": "address"
        },
        {
          "internalType": "uint256",
          "name": "tokenId",
          "type": "uint256"
        }
      ],
      "name": "approve",
      "outputs": [],
      "stateMutability": "nonpayable",
      "type": "function"
    },
    {
      "inputs": [
        {
          "internalType": "address",
          "name": "owner",
          "type": "address"
        }
      ],
      "name": "balanceOf",
      "outputs": [
        {
          "internalType": "uint256",
          "name": "",
          "type": "uint256"
        }
      ],
      "stateMutability": "view",
      "type": "function"
    },
    {
      "inputs": [],
      "name": "baseURI",
      "outputs": [
        {
          "internalType": "string",
          "name": "",
          "type": "string"
        }
      ],
      "stateMutability": "view",
      "type": "function"
    },
    {
      "inputs": [
        {
          "internalType": "uint256",
          "name": "",
          "type": "uint256"
        }
      ],
      "name": "bills",
      "outputs": [
        {
          "internalType": "address",
          "name": "driver",
          "type": "address"
        },
        {
          "internalType": "string",
          "name": "serialNumber",
          "type": "string"
        },
        {
          "components": [
            {
              "internalType": "uint8",
              "name": "degree",
              "type": "uint8"
            },
            {
              "internalType": "uint8",
              "name": "minute",
              "type": "uint8"
            },
            {
              "internalType": "uint16",
              "name": "second",
              "type": "uint16"
            },
            {
              "internalType": "enum BillOfLading.CardinalDirections",
              "name": "cardinalDirection",
              "type": "uint8"
            }
          ],
          "internalType": "struct BillOfLading.GeoPosition",
          "name": "originLatitude",
          "type": "tuple"
        },
        {
          "components": [
            {
              "internalType": "uint8",
              "name": "degree",
              "type": "uint8"
            },
            {
              "internalType": "uint8",
              "name": "minute",
              "type": "uint8"
            },
            {
              "internalType": "uint16",
              "name": "second",
              "type": "uint16"
            },
            {
              "internalType": "enum BillOfLading.CardinalDirections",
              "name": "cardinalDirection",
              "type": "uint8"
            }
          ],
          "internalType": "struct BillOfLading.GeoPosition",
          "name": "originLongitude",
          "type": "tuple"
        },
        {
          "components": [
            {
              "internalType": "uint8",
              "name": "degree",
              "type": "uint8"
            },
            {
              "internalType": "uint8",
              "name": "minute",
              "type": "uint8"
            },
            {
              "internalType": "uint16",
              "name": "second",
              "type": "uint16"
            },
            {
              "internalType": "enum BillOfLading.CardinalDirections",
              "name": "cardinalDirection",
              "type": "uint8"
            }
          ],
          "internalType": "struct BillOfLading.GeoPosition",
          "name": "destinationLatitude",
          "type": "tuple"
        },
        {
          "components": [
            {
              "internalType": "uint8",
              "name": "degree",
              "type": "uint8"
            },
            {
              "internalType": "uint8",
              "name": "minute",
              "type": "uint8"
            },
            {
              "internalType": "uint16",
              "name": "second",
              "type": "uint16"
            },
            {
              "internalType": "enum BillOfLading.CardinalDirections",
              "name": "cardinalDirection",
              "type": "uint8"
            }
          ],
          "internalType": "struct BillOfLading.GeoPosition",
          "name": "destinationLongitude",
          "type": "tuple"
        },
        {
          "internalType": "uint256",
          "name": "quantity",
          "type": "uint256"
        },
        {
          "internalType": "uint256",
          "name": "timestamp",
          "type": "uint256"
        }
      ],
      "stateMutability": "view",
      "type": "function"
    },
    {
      "inputs": [
        {
          "internalType": "uint256",
          "name": "tokenId",
          "type": "uint256"
        }
      ],
      "name": "burn",
      "outputs": [],
      "stateMutability": "nonpayable",
      "type": "function"
    },
    {
      "inputs": [
        {
          "internalType": "uint256",
          "name": "tokenId",
          "type": "uint256"
        }
      ],
      "name": "getApproved",
      "outputs": [
        {
          "internalType": "address",
          "name": "",
          "type": "address"
        }
      ],
      "stateMutability": "view",
      "type": "function"
    },
    {
      "inputs": [
        {
          "internalType": "bytes32",
          "name": "role",
          "type": "bytes32"
        }
      ],
      "name": "getRoleAdmin",
      "outputs": [
        {
          "internalType": "bytes32",
          "name": "",
          "type": "bytes32"
        }
      ],
      "stateMutability": "view",
      "type": "function"
    },
    {
      "inputs": [
        {
          "internalType": "bytes32",
          "name": "role",
          "type": "bytes32"
        },
        {
          "internalType": "uint256",
          "name": "index",
          "type": "uint256"
        }
      ],
      "name": "getRoleMember",
      "outputs": [
        {
          "internalType": "address",
          "name": "",
          "type": "address"
        }
      ],
      "stateMutability": "view",
      "type": "function"
    },
    {
      "inputs": [
        {
          "internalType": "bytes32",
          "name": "role",
          "type": "bytes32"
        }
      ],
      "name": "getRoleMemberCount",
      "outputs": [
        {
          "internalType": "uint256",
          "name": "",
          "type": "uint256"
        }
      ],
      "stateMutability": "view",
      "type": "function"
    },
    {
      "inputs": [
        {
          "internalType": "bytes32",
          "name": "role",
          "type": "bytes32"
        },
        {
          "internalType": "address",
          "name": "account",
          "type": "address"
        }
      ],
      "name": "grantRole",
      "outputs": [],
      "stateMutability": "nonpayable",
      "type": "function"
    },
    {
      "inputs": [
        {
          "internalType": "bytes32",
          "name": "role",
          "type": "bytes32"
        },
        {
          "internalType": "address",
          "name": "account",
          "type": "address"
        }
      ],
      "name": "hasRole",
      "outputs": [
        {
          "internalType": "bool",
          "name": "",
          "type": "bool"
        }
      ],
      "stateMutability": "view",
      "type": "function"
    },
    {
      "inputs": [
        {
          "internalType": "address",
          "name": "owner",
          "type": "address"
        },
        {
          "internalType": "address",
          "name": "operator",
          "type": "address"
        }
      ],
      "name": "isApprovedForAll",
      "outputs": [
        {
          "internalType": "bool",
          "name": "",
          "type": "bool"
        }
      ],
      "stateMutability": "view",
      "type": "function"
    },
    {
      "inputs": [
        {
          "internalType": "address",
          "name": "to",
          "type": "address"
        }
      ],
      "name": "mint",
      "outputs": [],
      "stateMutability": "nonpayable",
      "type": "function"
    },
    {
      "inputs": [],
      "name": "name",
      "outputs": [
        {
          "internalType": "string",
          "name": "",
          "type": "string"
        }
      ],
      "stateMutability": "view",
      "type": "function"
    },
    {
      "inputs": [
        {
          "internalType": "uint256",
          "name": "tokenId",
          "type": "uint256"
        }
      ],
      "name": "ownerOf",
      "outputs": [
        {
          "internalType": "address",
          "name": "",
          "type": "address"
        }
      ],
      "stateMutability": "view",
      "type": "function"
    },
    {
      "inputs": [],
      "name": "pause",
      "outputs": [],
      "stateMutability": "nonpayable",
      "type": "function"
    },
    {
      "inputs": [],
      "name": "paused",
      "outputs": [
        {
          "internalType": "bool",
          "name": "",
          "type": "bool"
        }
      ],
      "stateMutability": "view",
      "type": "function"
    },
    {
      "inputs": [
        {
          "internalType": "bytes32",
          "name": "role",
          "type": "bytes32"
        },
        {
          "internalType": "address",
          "name": "account",
          "type": "address"
        }
      ],
      "name": "renounceRole",
      "outputs": [],
      "stateMutability": "nonpayable",
      "type": "function"
    },
    {
      "inputs": [
        {
          "internalType": "bytes32",
          "name": "role",
          "type": "bytes32"
        },
        {
          "internalType": "address",
          "name": "account",
          "type": "address"
        }
      ],
      "name": "revokeRole",
      "outputs": [],
      "stateMutability": "nonpayable",
      "type": "function"
    },
    {
      "inputs": [
        {
          "internalType": "address",
          "name": "from",
          "type": "address"
        },
        {
          "internalType": "address",
          "name": "to",
          "type": "address"
        },
        {
          "internalType": "uint256",
          "name": "tokenId",
          "type": "uint256"
        }
      ],
      "name": "safeTransferFrom",
      "outputs": [],
      "stateMutability": "nonpayable",
      "type": "function"
    },
    {
      "inputs": [
        {
          "internalType": "address",
          "name": "from",
          "type": "address"
        },
        {
          "internalType": "address",
          "name": "to",
          "type": "address"
        },
        {
          "internalType": "uint256",
          "name": "tokenId",
          "type": "uint256"
        },
        {
          "internalType": "bytes",
          "name": "_data",
          "type": "bytes"
        }
      ],
      "name": "safeTransferFrom",
      "outputs": [],
      "stateMutability": "nonpayable",
      "type": "function"
    },
    {
      "inputs": [
        {
          "internalType": "address",
          "name": "operator",
          "type": "address"
        },
        {
          "internalType": "bool",
          "name": "approved",
          "type": "bool"
        }
      ],
      "name": "setApprovalForAll",
      "outputs": [],
      "stateMutability": "nonpayable",
      "type": "function"
    },
    {
      "inputs": [
        {
          "internalType": "bytes4",
          "name": "interfaceId",
          "type": "bytes4"
        }
      ],
      "name": "supportsInterface",
      "outputs": [
        {
          "internalType": "bool",
          "name": "",
          "type": "bool"
        }
      ],
      "stateMutability": "view",
      "type": "function"
    },
    {
      "inputs": [],
      "name": "symbol",
      "outputs": [
        {
          "internalType": "string",
          "name": "",
          "type": "string"
        }
      ],
      "stateMutability": "view",
      "type": "function"
    },
    {
      "inputs": [
        {
          "internalType": "uint256",
          "name": "index",
          "type": "uint256"
        }
      ],
      "name": "tokenByIndex",
      "outputs": [
        {
          "internalType": "uint256",
          "name": "",
          "type": "uint256"
        }
      ],
      "stateMutability": "view",
      "type": "function"
    },
    {
      "inputs": [
        {
          "internalType": "address",
          "name": "owner",
          "type": "address"
        },
        {
          "internalType": "uint256",
          "name": "index",
          "type": "uint256"
        }
      ],
      "name": "tokenOfOwnerByIndex",
      "outputs": [
        {
          "internalType": "uint256",
          "name": "",
          "type": "uint256"
        }
      ],
      "stateMutability": "view",
      "type": "function"
    },
    {
      "inputs": [
        {
          "internalType": "uint256",
          "name": "tokenId",
          "type": "uint256"
        }
      ],
      "name": "tokenURI",
      "outputs": [
        {
          "internalType": "string",
          "name": "",
          "type": "string"
        }
      ],
      "stateMutability": "view",
      "type": "function"
    },
    {
      "inputs": [],
      "name": "totalSupply",
      "outputs": [
        {
          "internalType": "uint256",
          "name": "",
          "type": "uint256"
        }
      ],
      "stateMutability": "view",
      "type": "function"
    },
    {
      "inputs": [
        {
          "internalType": "address",
          "name": "from",
          "type": "address"
        },
        {
          "internalType": "address",
          "name": "to",
          "type": "address"
        },
        {
          "internalType": "uint256",
          "name": "tokenId",
          "type": "uint256"
        }
      ],
      "name": "transferFrom",
      "outputs": [],
      "stateMutability": "nonpayable",
      "type": "function"
    },
    {
      "inputs": [],
      "name": "unpause",
      "outputs": [],
      "stateMutability": "nonpayable",
      "type": "function"
    },
    {
      "inputs": [
        {
          "components": [
            {
              "internalType": "address",
              "name": "driver",
              "type": "address"
            },
            {
              "internalType": "string",
              "name": "serialNumber",
              "type": "string"
            },
            {
              "components": [
                {
                  "internalType": "uint8",
                  "name": "degree",
                  "type": "uint8"
                },
                {
                  "internalType": "uint8",
                  "name": "minute",
                  "type": "uint8"
                },
                {
                  "internalType": "uint16",
                  "name": "second",
                  "type": "uint16"
                },
                {
                  "internalType": "enum BillOfLading.CardinalDirections",
                  "name": "cardinalDirection",
                  "type": "uint8"
                }
              ],
              "internalType": "struct BillOfLading.GeoPosition[2]",
              "name": "origin",
              "type": "tuple[2]"
            },
            {
              "components": [
                {
                  "internalType": "uint8",
                  "name": "degree",
                  "type": "uint8"
                },
                {
                  "internalType": "uint8",
                  "name": "minute",
                  "type": "uint8"
                },
                {
                  "internalType": "uint16",
                  "name": "second",
                  "type": "uint16"
                },
                {
                  "internalType": "enum BillOfLading.CardinalDirections",
                  "name": "cardinalDirection",
                  "type": "uint8"
                }
              ],
              "internalType": "struct BillOfLading.GeoPosition[2]",
              "name": "destination",
              "type": "tuple[2]"
            },
            {
              "internalType": "uint256",
              "name": "quantity",
              "type": "uint256"
            }
          ],
          "internalType": "struct BillOfLading.MintArgs",
          "name": "_args",
          "type": "tuple"
        },
        {
          "internalType": "address",
          "name": "_funding",
          "type": "address"
        },
        {
          "internalType": "uint256",
          "name": "_value",
          "type": "uint256"
        }
      ],
      "name": "createBillOfLading",
      "outputs": [],
      "stateMutability": "nonpayable",
      "type": "function"
    },
    {
      "inputs": [
        {
          "internalType": "uint256",
          "name": "tokenId",
          "type": "uint256"
        }
      ],
      "name": "readData",
      "outputs": [
        {
          "internalType": "bytes32",
          "name": "",
          "type": "bytes32"
        }
      ],
      "stateMutability": "view",
      "type": "function"
    },
    {
      "inputs": [
        {
          "internalType": "uint256",
          "name": "tokenId",
          "type": "uint256"
        },
        {
          "internalType": "bytes32",
          "name": "newData",
          "type": "bytes32"
        }
      ],
      "name": "writeData",
      "outputs": [],
      "stateMutability": "nonpayable",
      "type": "function"
    }
  ],
  "bytecode": "0x60806040523480156200001157600080fd5b50604051620057d2380380620057d28339818101604052810190620000379190620005ec565b8383838282620000546301ffc9a760e01b6200020860201b60201c565b81600790805190602001906200006c929190620004c3565b50806008908051906020019062000085929190620004c3565b506200009e6380ac58cd60e01b6200020860201b60201c565b620000b6635b5e139f60e01b6200020860201b60201c565b620000ce63780e9d6360e01b6200020860201b60201c565b50506000600b60006101000a81548160ff0219169083151502179055506200010f6000801b620001036200031160201b60201c565b6200031960201b60201c565b620001507f9f2df0fed2c77648de5860a4cc508cd0818c85b8b8a1ab4ceeef8d981c8956a6620001446200031160201b60201c565b6200031960201b60201c565b620001917f65d7a28e3265b37a6474929f336521b332c1681b933f6cb9f3376673440d862a620001856200031160201b60201c565b6200031960201b60201c565b620001a2816200032f60201b60201c565b505050620001bd639e68683c60e01b6200020860201b60201c565b80600f60006101000a81548173ffffffffffffffffffffffffffffffffffffffff021916908373ffffffffffffffffffffffffffffffffffffffff1602179055505050505062000790565b63ffffffff60e01b817bffffffffffffffffffffffffffffffffffffffffffffffffffffffff19161415620002a5576040517f08c379a000000000000000000000000000000000000000000000000000000000815260040180806020018281038252601c8152602001807f4552433136353a20696e76616c696420696e746572666163652069640000000081525060200191505060405180910390fd5b6001806000837bffffffffffffffffffffffffffffffffffffffffffffffffffffffff19167bffffffffffffffffffffffffffffffffffffffffffffffffffffffff1916815260200190815260200160002060006101000a81548160ff02191690831515021790555050565b600033905090565b6200032b82826200034b60201b60201c565b5050565b80600a908051906020019062000347929190620004c3565b5050565b6200037981600080858152602001908152602001600020600001620003ee60201b620023801790919060201c565b15620003ea576200038f6200031160201b60201c565b73ffffffffffffffffffffffffffffffffffffffff168173ffffffffffffffffffffffffffffffffffffffff16837f2f8788117e7eff1d82e926ec794901d17c78024a50270940304540a733656f0d60405160405180910390a45b5050565b60006200041e836000018373ffffffffffffffffffffffffffffffffffffffff1660001b6200042660201b60201c565b905092915050565b60006200043a8383620004a060201b60201c565b620004955782600001829080600181540180825580915050600190039060005260206000200160009091909190915055826000018054905083600101600084815260200190815260200160002081905550600190506200049a565b600090505b92915050565b600080836001016000848152602001908152602001600020541415905092915050565b828054600181600116156101000203166002900490600052602060002090601f016020900481019282620004fb576000855562000547565b82601f106200051657805160ff191683800117855562000547565b8280016001018555821562000547579182015b828111156200054657825182559160200191906001019062000529565b5b5090506200055691906200055a565b5090565b5b80821115620005755760008160009055506001016200055b565b5090565b6000815190506200058a8162000776565b92915050565b600082601f830112620005a257600080fd5b8151620005b9620005b382620006d7565b620006a3565b91508082526020830160208301858383011115620005d657600080fd5b620005e38382846200073e565b50505092915050565b600080600080608085870312156200060357600080fd5b600085015167ffffffffffffffff8111156200061e57600080fd5b6200062c8782880162000590565b945050602085015167ffffffffffffffff8111156200064a57600080fd5b620006588782880162000590565b935050604085015167ffffffffffffffff8111156200067657600080fd5b620006848782880162000590565b9250506060620006978782880162000579565b91505092959194509250565b6000604051905081810181811067ffffffffffffffff82111715620006cd57620006cc62000774565b5b8060405250919050565b600067ffffffffffffffff821115620006f557620006f462000774565b5b601f19601f8301169050602081019050919050565b600062000717826200071e565b9050919050565b600073ffffffffffffffffffffffffffffffffffffffff82169050919050565b60005b838110156200075e57808201518184015260208101905062000741565b838111156200076e576000848401525b50505050565bfe5b62000781816200070a565b81146200078d57600080fd5b50565b61503280620007a06000396000f3fe608060405234801561001057600080fd5b506004361061021c5760003560e01c80636352211e11610125578063a22cb465116100ad578063ca15c8731161007c578063ca15c87314610664578063d539139314610694578063d547741f146106b2578063e63ab1e9146106ce578063e985e9c5146106ec5761021c565b8063a22cb465146105e0578063a983d43f146105fc578063b88d4fde14610618578063c87b56dd146106345761021c565b80638456cb59116100f45780638456cb591461053a5780639010d07c1461054457806391d148541461057457806395d89b41146105a4578063a217fddf146105c25761021c565b80636352211e146104a05780636a627842146104d05780636c0360eb146104ec57806370a082311461050a5761021c565b80632f2ff15d116101a85780633f4ba83a116101775780633f4ba83a1461041057806342842e0e1461041a57806342966c68146104365780634f6ccce7146104525780635c975abb146104825761021c565b80632f2ff15d146103785780632f745c591461039457806336568abe146103c457806337ebbc03146103e05761021c565b806318160ddd116101ef57806318160ddd146102bb5780632003e4e6146102d957806323b872dd146102f5578063248a9ca31461031157806328bdcde8146103415761021c565b806301ffc9a71461022157806306fdde0314610251578063081812fc1461026f578063095ea7b31461029f575b600080fd5b61023b60048036038101906102369190614304565b61071c565b604051610248919061482e565b60405180910390f35b610259610784565b604051610266919061488d565b60405180910390f35b61028960048036038101906102849190614394565b610826565b60405161029691906146bc565b60405180910390f35b6102b960048036038101906102b491906141fe565b6108c1565b005b6102c3610a05565b6040516102d091906148d1565b60405180910390f35b6102f360048036038101906102ee919061432d565b610a16565b005b61030f600480360381019061030a91906140f8565b611155565b005b61032b60048036038101906103269190614263565b6111cb565b6040516103389190614849565b60405180910390f35b61035b60048036038101906103569190614394565b6111ea565b60405161036f989796959493929190614737565b60405180910390f35b610392600480360381019061038d919061428c565b61153e565b005b6103ae60048036038101906103a991906141fe565b6115c7565b6040516103bb91906148d1565b60405180910390f35b6103de60048036038101906103d9919061428c565b611622565b005b6103fa60048036038101906103f59190614394565b6116bb565b6040516104079190614849565b60405180910390f35b6104186116ea565b005b610434600480360381019061042f91906140f8565b61177a565b005b610450600480360381019061044b9190614394565b61179a565b005b61046c60048036038101906104679190614394565b61180c565b60405161047991906148d1565b60405180910390f35b61048a61182f565b604051610497919061482e565b60405180910390f35b6104ba60048036038101906104b59190614394565b611846565b6040516104c791906146bc565b60405180910390f35b6104ea60048036038101906104e59190614093565b61187d565b005b6104f4611923565b604051610501919061488d565b60405180910390f35b610524600480360381019061051f9190614093565b6119c5565b60405161053191906148d1565b60405180910390f35b610542611a9a565b005b61055e600480360381019061055991906142c8565b611b2a565b60405161056b91906146bc565b60405180910390f35b61058e6004803603810190610589919061428c565b611b5b565b60405161059b919061482e565b60405180910390f35b6105ac611b8c565b6040516105b9919061488d565b60405180910390f35b6105ca611c2e565b6040516105d79190614849565b60405180910390f35b6105fa60048036038101906105f591906141c2565b611c35565b005b610616600480360381019061061191906143e6565b611deb565b005b610632600480360381019061062d9190614147565b611e94565b005b61064e60048036038101906106499190614394565b611f0c565b60405161065b919061488d565b60405180910390f35b61067e60048036038101906106799190614263565b6121f5565b60405161068b91906148d1565b60405180910390f35b61069c61221b565b6040516106a99190614849565b60405180910390f35b6106cc60048036038101906106c7919061428c565b61223f565b005b6106d66122c8565b6040516106e39190614849565b60405180910390f35b610706600480360381019061070191906140bc565b6122ec565b604051610713919061482e565b60405180910390f35b600060016000837bffffffffffffffffffffffffffffffffffffffffffffffffffffffff19167bffffffffffffffffffffffffffffffffffffffffffffffffffffffff1916815260200190815260200160002060009054906101000a900460ff169050919050565b606060078054600181600116156101000203166002900480601f01602080910402602001604051908101604052809291908181526020018280546001816001161561010002031660029004801561081c5780601f106107f15761010080835404028352916020019161081c565b820191906000526020600020905b8154815290600101906020018083116107ff57829003601f168201915b5050505050905090565b6000610831826123b0565b610886576040517f08c379a000000000000000000000000000000000000000000000000000000000815260040180806020018281038252602c815260200180614e4b602c913960400191505060405180910390fd5b6005600083815260200190815260200160002060009054906101000a900473ffffffffffffffffffffffffffffffffffffffff169050919050565b60006108cc82611846565b90508073ffffffffffffffffffffffffffffffffffffffff168373ffffffffffffffffffffffffffffffffffffffff161415610953576040517f08c379a0000000000000000000000000000000000000000000000000000000008152600401808060200182810382526021815260200180614ecf6021913960400191505060405180910390fd5b8073ffffffffffffffffffffffffffffffffffffffff166109726123cd565b73ffffffffffffffffffffffffffffffffffffffff1614806109a157506109a08161099b6123cd565b6122ec565b5b6109f6576040517f08c379a0000000000000000000000000000000000000000000000000000000008152600401808060200182810382526038815260200180614d9e6038913960400191505060405180910390fd5b610a0083836123d5565b505050565b6000610a11600361248e565b905090565b808273ffffffffffffffffffffffffffffffffffffffff1663dd62ed3e33306040518363ffffffff1660e01b8152600401610a529291906146d7565b60206040518083038186803b158015610a6a57600080fd5b505afa158015610a7e573d6000803e3d6000fd5b505050506040513d601f19601f82011682018060405250810190610aa291906143bd565b1015610aad57600080fd5b600d604051806101000160405280856000015173ffffffffffffffffffffffffffffffffffffffff168152602001856020015181526020018560400151600060028110610af657fe5b602002015181526020018560400151600160028110610b1157fe5b602002015181526020018560600151600060028110610b2c57fe5b602002015181526020018560600151600160028110610b4757fe5b602002015181526020018560800151815260200142815250908060018154018082558091505060019003906000526020600020906008020160009091909190915060008201518160000160006101000a81548173ffffffffffffffffffffffffffffffffffffffff021916908373ffffffffffffffffffffffffffffffffffffffff1602179055506020820151816001019080519060200190610beb929190613c9b565b5060408201518160020160008201518160000160006101000a81548160ff021916908360ff16021790555060208201518160000160016101000a81548160ff021916908360ff16021790555060408201518160000160026101000a81548161ffff021916908361ffff16021790555060608201518160000160046101000a81548160ff02191690836003811115610c7e57fe5b0217905550505060608201518160030160008201518160000160006101000a81548160ff021916908360ff16021790555060208201518160000160016101000a81548160ff021916908360ff16021790555060408201518160000160026101000a81548161ffff021916908361ffff16021790555060608201518160000160046101000a81548160ff02191690836003811115610d1757fe5b0217905550505060808201518160040160008201518160000160006101000a81548160ff021916908360ff16021790555060208201518160000160016101000a81548160ff021916908360ff16021790555060408201518160000160026101000a81548161ffff021916908361ffff16021790555060608201518160000160046101000a81548160ff02191690836003811115610db057fe5b0217905550505060a08201518160050160008201518160000160006101000a81548160ff021916908360ff16021790555060208201518160000160016101000a81548160ff021916908360ff16021790555060408201518160000160026101000a81548161ffff021916908361ffff16021790555060608201518160000160046101000a81548160ff02191690836003811115610e4957fe5b0217905550505060c0820151816006015560e082015181600701555050610e6f3361187d565b8173ffffffffffffffffffffffffffffffffffffffff166323b872dd3330846040518463ffffffff1660e01b8152600401610eac93929190614700565b602060405180830381600087803b158015610ec657600080fd5b505af1158015610eda573d6000803e3d6000fd5b505050506040513d601f19601f82011682018060405250810190610efe919061423a565b508173ffffffffffffffffffffffffffffffffffffffff1663095ea7b3600f60009054906101000a900473ffffffffffffffffffffffffffffffffffffffff16836040518363ffffffff1660e01b8152600401610f5c9291906147c0565b602060405180830381600087803b158015610f7657600080fd5b505af1158015610f8a573d6000803e3d6000fd5b505050506040513d601f19601f82011682018060405250810190610fae919061423a565b506000600f60009054906101000a900473ffffffffffffffffffffffffffffffffffffffff1673ffffffffffffffffffffffffffffffffffffffff16630b4225066001610ff9610a05565b036040518263ffffffff1660e01b815260040161101691906148d1565b602060405180830381600087803b15801561103057600080fd5b505af1158015611044573d6000803e3d6000fd5b505050506040513d601f19601f8201168201806040525081019061106891906143bd565b9050600f60009054906101000a900473ffffffffffffffffffffffffffffffffffffffff1673ffffffffffffffffffffffffffffffffffffffff166307cff6f2308386866040518563ffffffff1660e01b81526004016110cb94939291906147e9565b600060405180830381600087803b1580156110e557600080fd5b505af11580156110f9573d6000803e3d6000fd5b50505050836000015173ffffffffffffffffffffffffffffffffffffffff167fd244a29178a89bcc410bea67f79c363946c38c1f844b28ec9e44547226f705e68560405161114791906148af565b60405180910390a250505050565b6111666111606123cd565b826124a3565b6111bb576040517f08c379a0000000000000000000000000000000000000000000000000000000008152600401808060200182810382526031815260200180614ef06031913960400191505060405180910390fd5b6111c6838383612597565b505050565b6000806000838152602001908152602001600020600201549050919050565b600d81815481106111fa57600080fd5b90600052602060002090600802016000915090508060000160009054906101000a900473ffffffffffffffffffffffffffffffffffffffff1690806001018054600181600116156101000203166002900480601f0160208091040260200160405190810160405280929190818152602001828054600181600116156101000203166002900480156112cc5780601f106112a1576101008083540402835291602001916112cc565b820191906000526020600020905b8154815290600101906020018083116112af57829003601f168201915b505050505090806002016040518060800160405290816000820160009054906101000a900460ff1660ff1660ff1681526020016000820160019054906101000a900460ff1660ff1660ff1681526020016000820160029054906101000a900461ffff1661ffff1661ffff1681526020016000820160049054906101000a900460ff16600381111561135957fe5b600381111561136457fe5b8152505090806003016040518060800160405290816000820160009054906101000a900460ff1660ff1660ff1681526020016000820160019054906101000a900460ff1660ff1660ff1681526020016000820160029054906101000a900461ffff1661ffff1661ffff1681526020016000820160049054906101000a900460ff1660038111156113f057fe5b60038111156113fb57fe5b8152505090806004016040518060800160405290816000820160009054906101000a900460ff1660ff1660ff1681526020016000820160019054906101000a900460ff1660ff1660ff1681526020016000820160029054906101000a900461ffff1661ffff1661ffff1681526020016000820160049054906101000a900460ff16600381111561148757fe5b600381111561149257fe5b8152505090806005016040518060800160405290816000820160009054906101000a900460ff1660ff1660ff1681526020016000820160019054906101000a900460ff1660ff1660ff1681526020016000820160029054906101000a900461ffff1661ffff1661ffff1681526020016000820160049054906101000a900460ff16600381111561151e57fe5b600381111561152957fe5b81525050908060060154908060070154905088565b6115646000808481526020019081526020016000206002015461155f6123cd565b611b5b565b6115b9576040517f08c379a000000000000000000000000000000000000000000000000000000000815260040180806020018281038252602f815260200180614c59602f913960400191505060405180910390fd5b6115c382826127da565b5050565b600061161a82600260008673ffffffffffffffffffffffffffffffffffffffff1673ffffffffffffffffffffffffffffffffffffffff16815260200190815260200160002061286d90919063ffffffff16565b905092915050565b61162a6123cd565b73ffffffffffffffffffffffffffffffffffffffff168173ffffffffffffffffffffffffffffffffffffffff16146116ad576040517f08c379a000000000000000000000000000000000000000000000000000000000815260040180806020018281038252602f815260200180614fce602f913960400191505060405180910390fd5b6116b78282612887565b5050565b60006116c6826123b0565b6116cf57600080fd5b600e6000838152602001908152602001600020549050919050565b61171b7f65d7a28e3265b37a6474929f336521b332c1681b933f6cb9f3376673440d862a6117166123cd565b611b5b565b611770576040517f08c379a0000000000000000000000000000000000000000000000000000000008152600401808060200182810382526040815260200180614f8e6040913960400191505060405180910390fd5b61177861291a565b565b61179583838360405180602001604052806000815250611e94565b505050565b6117ab6117a56123cd565b826124a3565b611800576040517f08c379a0000000000000000000000000000000000000000000000000000000008152600401808060200182810382526030815260200180614f5e6030913960400191505060405180910390fd5b61180981612a0d565b50565b600080611823836003612b4790919063ffffffff16565b50905080915050919050565b6000600b60009054906101000a900460ff16905090565b600061187682604051806060016040528060298152602001614e00602991396003612b739092919063ffffffff16565b9050919050565b6118ae7f9f2df0fed2c77648de5860a4cc508cd0818c85b8b8a1ab4ceeef8d981c8956a66118a96123cd565b611b5b565b611903576040517f08c379a000000000000000000000000000000000000000000000000000000000815260040180806020018281038252603d815260200180614f21603d913960400191505060405180910390fd5b61191681611911600c612b92565b612ba0565b611920600c612d94565b50565b6060600a8054600181600116156101000203166002900480601f0160208091040260200160405190810160405280929190818152602001828054600181600116156101000203166002900480156119bb5780601f10611990576101008083540402835291602001916119bb565b820191906000526020600020905b81548152906001019060200180831161199e57829003601f168201915b5050505050905090565b60008073ffffffffffffffffffffffffffffffffffffffff168273ffffffffffffffffffffffffffffffffffffffff161415611a4c576040517f08c379a000000000000000000000000000000000000000000000000000000000815260040180806020018281038252602a815260200180614dd6602a913960400191505060405180910390fd5b611a93600260008473ffffffffffffffffffffffffffffffffffffffff1673ffffffffffffffffffffffffffffffffffffffff168152602001908152602001600020612daa565b9050919050565b611acb7f65d7a28e3265b37a6474929f336521b332c1681b933f6cb9f3376673440d862a611ac66123cd565b611b5b565b611b20576040517f08c379a000000000000000000000000000000000000000000000000000000000815260040180806020018281038252603e815260200180614cba603e913960400191505060405180910390fd5b611b28612dbf565b565b6000611b5382600080868152602001908152602001600020600001612eb390919063ffffffff16565b905092915050565b6000611b8482600080868152602001908152602001600020600001612ecd90919063ffffffff16565b905092915050565b606060088054600181600116156101000203166002900480601f016020809104026020016040519081016040528092919081815260200182805460018160011615610100020316600290048015611c245780601f10611bf957610100808354040283529160200191611c24565b820191906000526020600020905b815481529060010190602001808311611c0757829003601f168201915b5050505050905090565b6000801b81565b611c3d6123cd565b73ffffffffffffffffffffffffffffffffffffffff168273ffffffffffffffffffffffffffffffffffffffff161415611cde576040517f08c379a00000000000000000000000000000000000000000000000000000000081526004018080602001828103825260198152602001807f4552433732313a20617070726f766520746f2063616c6c65720000000000000081525060200191505060405180910390fd5b8060066000611ceb6123cd565b73ffffffffffffffffffffffffffffffffffffffff1673ffffffffffffffffffffffffffffffffffffffff16815260200190815260200160002060008473ffffffffffffffffffffffffffffffffffffffff1673ffffffffffffffffffffffffffffffffffffffff16815260200190815260200160002060006101000a81548160ff0219169083151502179055508173ffffffffffffffffffffffffffffffffffffffff16611d986123cd565b73ffffffffffffffffffffffffffffffffffffffff167f17307eab39ab6107e8899845ad3d59bd9653f200f220920489ca2b5937696c318360405180821515815260200191505060405180910390a35050565b611df482611846565b73ffffffffffffffffffffffffffffffffffffffff163373ffffffffffffffffffffffffffffffffffffffff1614611e2b57600080fd5b817f8ec06c2117d45dcb6bcb6ecf8918414a7ff1cb1ed07da8175e2cf638d0f4777f600e60008581526020019081526020016000205483604051611e70929190614864565b60405180910390a280600e6000848152602001908152602001600020819055505050565b611ea5611e9f6123cd565b836124a3565b611efa576040517f08c379a0000000000000000000000000000000000000000000000000000000008152600401808060200182810382526031815260200180614ef06031913960400191505060405180910390fd5b611f0684848484612efd565b50505050565b6060611f17826123b0565b611f6c576040517f08c379a000000000000000000000000000000000000000000000000000000000815260040180806020018281038252602f815260200180614ea0602f913960400191505060405180910390fd5b6060600960008481526020019081526020016000208054600181600116156101000203166002900480601f0160208091040260200160405190810160405280929190818152602001828054600181600116156101000203166002900480156120155780601f10611fea57610100808354040283529160200191612015565b820191906000526020600020905b815481529060010190602001808311611ff857829003601f168201915b505050505090506000600a805460018160011615610100020316600290049050141561204457809150506121f0565b60008151111561211d57600a8160405160200180838054600181600116156101000203166002900480156120af5780601f1061208d5761010080835404028352918201916120af565b820191906000526020600020905b81548152906001019060200180831161209b575b505082805190602001908083835b602083106120e057805182526020820191506020810190506020830392506120bd565b6001836020036101000a038019825116818451168082178552505050505050905001925050506040516020818303038152906040529150506121f0565b600a61212884612f6f565b60405160200180838054600181600116156101000203166002900480156121865780601f10612164576101008083540402835291820191612186565b820191906000526020600020905b815481529060010190602001808311612172575b505082805190602001908083835b602083106121b75780518252602082019150602081019050602083039250612194565b6001836020036101000a038019825116818451168082178552505050505050905001925050506040516020818303038152906040529150505b919050565b60006122146000808481526020019081526020016000206000016130b6565b9050919050565b7f9f2df0fed2c77648de5860a4cc508cd0818c85b8b8a1ab4ceeef8d981c8956a681565b612265600080848152602001908152602001600020600201546122606123cd565b611b5b565b6122ba576040517f08c379a0000000000000000000000000000000000000000000000000000000008152600401808060200182810382526030815260200180614d6e6030913960400191505060405180910390fd5b6122c48282612887565b5050565b7f65d7a28e3265b37a6474929f336521b332c1681b933f6cb9f3376673440d862a81565b6000600660008473ffffffffffffffffffffffffffffffffffffffff1673ffffffffffffffffffffffffffffffffffffffff16815260200190815260200160002060008373ffffffffffffffffffffffffffffffffffffffff1673ffffffffffffffffffffffffffffffffffffffff16815260200190815260200160002060009054906101000a900460ff16905092915050565b60006123a8836000018373ffffffffffffffffffffffffffffffffffffffff1660001b6130cb565b905092915050565b60006123c682600361313b90919063ffffffff16565b9050919050565b600033905090565b816005600083815260200190815260200160002060006101000a81548173ffffffffffffffffffffffffffffffffffffffff021916908373ffffffffffffffffffffffffffffffffffffffff160217905550808273ffffffffffffffffffffffffffffffffffffffff1661244883611846565b73ffffffffffffffffffffffffffffffffffffffff167f8c5be1e5ebec7d5bd14f71427d1e84f3dd0314c0f7b2291e5b200ac8c7c3b92560405160405180910390a45050565b600061249c82600001613155565b9050919050565b60006124ae826123b0565b612503576040517f08c379a000000000000000000000000000000000000000000000000000000000815260040180806020018281038252602c815260200180614d42602c913960400191505060405180910390fd5b600061250e83611846565b90508073ffffffffffffffffffffffffffffffffffffffff168473ffffffffffffffffffffffffffffffffffffffff16148061257d57508373ffffffffffffffffffffffffffffffffffffffff1661256584610826565b73ffffffffffffffffffffffffffffffffffffffff16145b8061258e575061258d81856122ec565b5b91505092915050565b8273ffffffffffffffffffffffffffffffffffffffff166125b782611846565b73ffffffffffffffffffffffffffffffffffffffff1614612623576040517f08c379a0000000000000000000000000000000000000000000000000000000008152600401808060200182810382526029815260200180614e776029913960400191505060405180910390fd5b600073ffffffffffffffffffffffffffffffffffffffff168273ffffffffffffffffffffffffffffffffffffffff1614156126a9576040517f08c379a0000000000000000000000000000000000000000000000000000000008152600401808060200182810382526024815260200180614cf86024913960400191505060405180910390fd5b6126b4838383613166565b6126bf6000826123d5565b61271081600260008673ffffffffffffffffffffffffffffffffffffffff1673ffffffffffffffffffffffffffffffffffffffff16815260200190815260200160002061317690919063ffffffff16565b5061276281600260008573ffffffffffffffffffffffffffffffffffffffff1673ffffffffffffffffffffffffffffffffffffffff16815260200190815260200160002061319090919063ffffffff16565b50612779818360036131aa9092919063ffffffff16565b50808273ffffffffffffffffffffffffffffffffffffffff168473ffffffffffffffffffffffffffffffffffffffff167fddf252ad1be2c89b69c2b068fc378daa952ba7f163c4a11628f55a4df523b3ef60405160405180910390a4505050565b6128018160008085815260200190815260200160002060000161238090919063ffffffff16565b156128695761280e6123cd565b73ffffffffffffffffffffffffffffffffffffffff168173ffffffffffffffffffffffffffffffffffffffff16837f2f8788117e7eff1d82e926ec794901d17c78024a50270940304540a733656f0d60405160405180910390a45b5050565b600061287c83600001836131df565b60001c905092915050565b6128ae8160008085815260200190815260200160002060000161326290919063ffffffff16565b15612916576128bb6123cd565b73ffffffffffffffffffffffffffffffffffffffff168173ffffffffffffffffffffffffffffffffffffffff16837ff6391f5c32d9c69d2a47ea670b442974b53935d1edc7fd64eb21e047a839171b60405160405180910390a45b5050565b600b60009054906101000a900460ff1661299c576040517f08c379a00000000000000000000000000000000000000000000000000000000081526004018080602001828103825260148152602001807f5061757361626c653a206e6f742070617573656400000000000000000000000081525060200191505060405180910390fd5b6000600b60006101000a81548160ff0219169083151502179055507f5db9ee0a495bf2e6ff9c91a7834c1ba4fdd244a5e8aa4e537bd38aeae4b073aa6129e06123cd565b604051808273ffffffffffffffffffffffffffffffffffffffff16815260200191505060405180910390a1565b6000612a1882611846565b9050612a2681600084613166565b612a316000836123d5565b60006009600084815260200190815260200160002080546001816001161561010002031660029004905014612a8057600960008381526020019081526020016000206000612a7f9190613d29565b5b612ad182600260008473ffffffffffffffffffffffffffffffffffffffff1673ffffffffffffffffffffffffffffffffffffffff16815260200190815260200160002061317690919063ffffffff16565b50612ae682600361329290919063ffffffff16565b5081600073ffffffffffffffffffffffffffffffffffffffff168273ffffffffffffffffffffffffffffffffffffffff167fddf252ad1be2c89b69c2b068fc378daa952ba7f163c4a11628f55a4df523b3ef60405160405180910390a45050565b600080600080612b5a86600001866132ac565b915091508160001c8160001c9350935050509250929050565b6000612b86846000018460001b84613345565b60001c90509392505050565b600081600001549050919050565b600073ffffffffffffffffffffffffffffffffffffffff168273ffffffffffffffffffffffffffffffffffffffff161415612c43576040517f08c379a00000000000000000000000000000000000000000000000000000000081526004018080602001828103825260208152602001807f4552433732313a206d696e7420746f20746865207a65726f206164647265737381525060200191505060405180910390fd5b612c4c816123b0565b15612cbf576040517f08c379a000000000000000000000000000000000000000000000000000000000815260040180806020018281038252601c8152602001807f4552433732313a20746f6b656e20616c7265616479206d696e7465640000000081525060200191505060405180910390fd5b612ccb60008383613166565b612d1c81600260008573ffffffffffffffffffffffffffffffffffffffff1673ffffffffffffffffffffffffffffffffffffffff16815260200190815260200160002061319090919063ffffffff16565b50612d33818360036131aa9092919063ffffffff16565b50808273ffffffffffffffffffffffffffffffffffffffff16600073ffffffffffffffffffffffffffffffffffffffff167fddf252ad1be2c89b69c2b068fc378daa952ba7f163c4a11628f55a4df523b3ef60405160405180910390a45050565b6001816000016000828254019250508190555050565b6000612db88260000161343b565b9050919050565b600b60009054906101000a900460ff1615612e42576040517f08c379a00000000000000000000000000000000000000000000000000000000081526004018080602001828103825260108152602001807f5061757361626c653a207061757365640000000000000000000000000000000081525060200191505060405180910390fd5b6001600b60006101000a81548160ff0219169083151502179055507f62e78cea01bee320cd4e420270b5ea74000d11b0c9f74754ebdbfc544b05a258612e866123cd565b604051808273ffffffffffffffffffffffffffffffffffffffff16815260200191505060405180910390a1565b6000612ec283600001836131df565b60001c905092915050565b6000612ef5836000018373ffffffffffffffffffffffffffffffffffffffff1660001b61344c565b905092915050565b612f08848484612597565b612f148484848461346f565b612f69576040517f08c379a0000000000000000000000000000000000000000000000000000000008152600401808060200182810382526032815260200180614c886032913960400191505060405180910390fd5b50505050565b60606000821415612fb7576040518060400160405280600181526020017f300000000000000000000000000000000000000000000000000000000000000081525090506130b1565b600082905060005b60008214612fe1578080600101915050600a8281612fd957fe5b049150612fbf565b60608167ffffffffffffffff81118015612ffa57600080fd5b506040519080825280601f01601f19166020018201604052801561302d5781602001600182028036833780820191505090505b50905060006001830390508593505b600084146130a957600a848161304e57fe5b0660300160f81b8282806001900393508151811061306857fe5b60200101907effffffffffffffffffffffffffffffffffffffffffffffffffffffffffffff1916908160001a905350600a84816130a157fe5b04935061303c565b819450505050505b919050565b60006130c48260000161343b565b9050919050565b60006130d7838361344c565b613130578260000182908060018154018082558091505060019003906000526020600020016000909190919091505582600001805490508360010160008481526020019081526020016000208190555060019050613135565b600090505b92915050565b600061314d836000018360001b613688565b905092915050565b600081600001805490509050919050565b6131718383836136ab565b505050565b6000613188836000018360001b613719565b905092915050565b60006131a2836000018360001b6130cb565b905092915050565b60006131d6846000018460001b8473ffffffffffffffffffffffffffffffffffffffff1660001b613801565b90509392505050565b600081836000018054905011613240576040517f08c379a0000000000000000000000000000000000000000000000000000000008152600401808060200182810382526022815260200180614c0c6022913960400191505060405180910390fd5b82600001828154811061324f57fe5b9060005260206000200154905092915050565b600061328a836000018373ffffffffffffffffffffffffffffffffffffffff1660001b613719565b905092915050565b60006132a4836000018360001b6138dd565b905092915050565b6000808284600001805490501161330e576040517f08c379a0000000000000000000000000000000000000000000000000000000008152600401808060200182810382526022815260200180614e296022913960400191505060405180910390fd5b600084600001848154811061331f57fe5b906000526020600020906002020190508060000154816001015492509250509250929050565b6000808460010160008581526020019081526020016000205490506000811415839061340c576040517f08c379a00000000000000000000000000000000000000000000000000000000081526004018080602001828103825283818151815260200191508051906020019080838360005b838110156133d15780820151818401526020810190506133b6565b50505050905090810190601f1680156133fe5780820380516001836020036101000a031916815260200191505b509250505060405180910390fd5b5084600001600182038154811061341f57fe5b9060005260206000209060020201600101549150509392505050565b600081600001805490509050919050565b600080836001016000848152602001908152602001600020541415905092915050565b60006134908473ffffffffffffffffffffffffffffffffffffffff166139f6565b61349d5760019050613680565b606061360763150b7a0260e01b6134b26123cd565b888787604051602401808573ffffffffffffffffffffffffffffffffffffffff1681526020018473ffffffffffffffffffffffffffffffffffffffff16815260200183815260200180602001828103825283818151815260200191508051906020019080838360005b8381101561353657808201518184015260208101905061351b565b50505050905090810190601f1680156135635780820380516001836020036101000a031916815260200191505b5095505050505050604051602081830303815290604052907bffffffffffffffffffffffffffffffffffffffffffffffffffffffff19166020820180517bffffffffffffffffffffffffffffffffffffffffffffffffffffffff8381831617835250505050604051806060016040528060328152602001614c88603291398773ffffffffffffffffffffffffffffffffffffffff16613a099092919063ffffffff16565b9050600081806020019051602081101561362057600080fd5b8101908080519060200190929190505050905063150b7a0260e01b7bffffffffffffffffffffffffffffffffffffffffffffffffffffffff1916817bffffffffffffffffffffffffffffffffffffffffffffffffffffffff191614925050505b949350505050565b600080836001016000848152602001908152602001600020541415905092915050565b6136b6838383613a21565b6136be61182f565b15613714576040517f08c379a000000000000000000000000000000000000000000000000000000000815260040180806020018281038252602b815260200180614c2e602b913960400191505060405180910390fd5b505050565b600080836001016000848152602001908152602001600020549050600081146137f5576000600182039050600060018660000180549050039050600086600001828154811061376457fe5b906000526020600020015490508087600001848154811061378157fe5b90600052602060002001819055506001830187600101600083815260200190815260200160002081905550866000018054806137b957fe5b600190038181906000526020600020016000905590558660010160008781526020019081526020016000206000905560019450505050506137fb565b60009150505b92915050565b60008084600101600085815260200190815260200160002054905060008114156138a8578460000160405180604001604052808681526020018581525090806001815401808255809150506001900390600052602060002090600202016000909190919091506000820151816000015560208201518160010155505084600001805490508560010160008681526020019081526020016000208190555060019150506138d6565b828560000160018303815481106138bb57fe5b90600052602060002090600202016001018190555060009150505b9392505050565b600080836001016000848152602001908152602001600020549050600081146139ea576000600182039050600060018660000180549050039050600086600001828154811061392857fe5b906000526020600020906002020190508087600001848154811061394857fe5b906000526020600020906002020160008201548160000155600182015481600101559050506001830187600101600083600001548152602001908152602001600020819055508660000180548061399b57fe5b60019003818190600052602060002090600202016000808201600090556001820160009055505090558660010160008781526020019081526020016000206000905560019450505050506139f0565b60009150505b92915050565b600080823b905060008111915050919050565b6060613a188484600085613a26565b90509392505050565b505050565b606082471015613a81576040517f08c379a0000000000000000000000000000000000000000000000000000000008152600401808060200182810382526026815260200180614d1c6026913960400191505060405180910390fd5b613a8a856139f6565b613afc576040517f08c379a000000000000000000000000000000000000000000000000000000000815260040180806020018281038252601d8152602001807f416464726573733a2063616c6c20746f206e6f6e2d636f6e747261637400000081525060200191505060405180910390fd5b600060608673ffffffffffffffffffffffffffffffffffffffff1685876040518082805190602001908083835b60208310613b4c5780518252602082019150602081019050602083039250613b29565b6001836020036101000a03801982511681845116808217855250505050505090500191505060006040518083038185875af1925050503d8060008114613bae576040519150601f19603f3d011682016040523d82523d6000602084013e613bb3565b606091505b5091509150613bc3828286613bcf565b92505050949350505050565b60608315613bdf57829050613c94565b600083511115613bf25782518084602001fd5b816040517f08c379a00000000000000000000000000000000000000000000000000000000081526004018080602001828103825283818151815260200191508051906020019080838360005b83811015613c59578082015181840152602081019050613c3e565b50505050905090810190601f168015613c865780820380516001836020036101000a031916815260200191505b509250505060405180910390fd5b9392505050565b828054600181600116156101000203166002900490600052602060002090601f016020900481019282613cd15760008555613d18565b82601f10613cea57805160ff1916838001178555613d18565b82800160010185558215613d18579182015b82811115613d17578251825591602001919060010190613cfc565b5b509050613d259190613d71565b5090565b50805460018160011615610100020316600290046000825580601f10613d4f5750613d6e565b601f016020900490600052602060002090810190613d6d9190613d71565b5b50565b5b80821115613d8a576000816000905550600101613d72565b5090565b600081359050613d9d81614b5a565b92915050565b600082601f830112613db457600080fd5b6002613dc7613dc28261491d565b6148ec565b91508183856080840282011115613ddd57600080fd5b60005b83811015613e0d5781613df38882613f28565b845260208401935060808301925050600181019050613de0565b5050505092915050565b600081359050613e2681614b71565b92915050565b600081519050613e3b81614b71565b92915050565b600081359050613e5081614b88565b92915050565b600081359050613e6581614b9f565b92915050565b600082601f830112613e7c57600080fd5b8135613e8f613e8a82614943565b6148ec565b91508082526020830160208301858383011115613eab57600080fd5b613eb6838284614af1565b50505092915050565b600081359050613ece81614bb6565b92915050565b600082601f830112613ee557600080fd5b8135613ef8613ef382614973565b6148ec565b91508082526020830160208301858383011115613f1457600080fd5b613f1f838284614af1565b50505092915050565b600060808284031215613f3a57600080fd5b613f4460806148ec565b90506000613f548482850161407e565b6000830152506020613f688482850161407e565b6020830152506040613f7c8482850161403f565b6040830152506060613f9084828501613ebf565b60608301525092915050565b60006102608284031215613faf57600080fd5b613fb960a06148ec565b90506000613fc984828501613d8e565b600083015250602082013567ffffffffffffffff811115613fe957600080fd5b613ff584828501613ed4565b602083015250604061400984828501613da3565b60408301525061014061401e84828501613da3565b60608301525061024061403384828501614054565b60808301525092915050565b60008135905061404e81614bc6565b92915050565b60008135905061406381614bdd565b92915050565b60008151905061407881614bdd565b92915050565b60008135905061408d81614bf4565b92915050565b6000602082840312156140a557600080fd5b60006140b384828501613d8e565b91505092915050565b600080604083850312156140cf57600080fd5b60006140dd85828601613d8e565b92505060206140ee85828601613d8e565b9150509250929050565b60008060006060848603121561410d57600080fd5b600061411b86828701613d8e565b935050602061412c86828701613d8e565b925050604061413d86828701614054565b9150509250925092565b6000806000806080858703121561415d57600080fd5b600061416b87828801613d8e565b945050602061417c87828801613d8e565b935050604061418d87828801614054565b925050606085013567ffffffffffffffff8111156141aa57600080fd5b6141b687828801613e6b565b91505092959194509250565b600080604083850312156141d557600080fd5b60006141e385828601613d8e565b92505060206141f485828601613e17565b9150509250929050565b6000806040838503121561421157600080fd5b600061421f85828601613d8e565b925050602061423085828601614054565b9150509250929050565b60006020828403121561424c57600080fd5b600061425a84828501613e2c565b91505092915050565b60006020828403121561427557600080fd5b600061428384828501613e41565b91505092915050565b6000806040838503121561429f57600080fd5b60006142ad85828601613e41565b92505060206142be85828601613d8e565b9150509250929050565b600080604083850312156142db57600080fd5b60006142e985828601613e41565b92505060206142fa85828601614054565b9150509250929050565b60006020828403121561431657600080fd5b600061432484828501613e56565b91505092915050565b60008060006060848603121561434257600080fd5b600084013567ffffffffffffffff81111561435c57600080fd5b61436886828701613f9c565b935050602061437986828701613d8e565b925050604061438a86828701614054565b9150509250925092565b6000602082840312156143a657600080fd5b60006143b484828501614054565b91505092915050565b6000602082840312156143cf57600080fd5b60006143dd84828501614069565b91505092915050565b600080604083850312156143f957600080fd5b600061440785828601614054565b925050602061441885828601613e41565b9150509250929050565b600061442e838361455d565b60808301905092915050565b61444381614aa9565b82525050565b614452816149fd565b82525050565b614461816149fd565b82525050565b614470816149ad565b61447a81846149d0565b9250614485826149a3565b8060005b838110156144b657815161449d8782614422565b96506144a8836149c3565b925050600181019050614489565b505050505050565b6144c781614a0f565b82525050565b6144d681614a1b565b82525050565b6144e581614abb565b82525050565b60006144f6826149b8565b61450081856149db565b9350614510818560208601614b00565b61451981614b35565b840191505092915050565b600061452f826149b8565b61453981856149ec565b9350614549818560208601614b00565b61455281614b35565b840191505092915050565b60808201600082015161457360008501826146ad565b50602082015161458660208501826146ad565b5060408201516145996040850182614680565b5060608201516145ac60608501826144dc565b50505050565b6080820160008201516145c860008501826146ad565b5060208201516145db60208501826146ad565b5060408201516145ee6040850182614680565b50606082015161460160608501826144dc565b50505050565b6000610260830160008301516146206000860182614449565b506020830151848203602086015261463882826144eb565b915050604083015161464d6040860182614467565b506060830151614661610140860182614467565b50608083015161467561024086018261468f565b508091505092915050565b61468981614a64565b82525050565b61469881614a92565b82525050565b6146a781614a92565b82525050565b6146b681614a9c565b82525050565b60006020820190506146d16000830184614458565b92915050565b60006040820190506146ec600083018561443a565b6146f96020830184614458565b9392505050565b6000606082019050614715600083018661443a565b6147226020830185614458565b61472f604083018461469e565b949350505050565b60006102808201905061474d600083018b614458565b818103602083015261475f818a614524565b905061476e60408301896145b2565b61477b60c08301886145b2565b6147896101408301876145b2565b6147976101c08301866145b2565b6147a561024083018561469e565b6147b361026083018461469e565b9998505050505050505050565b60006040820190506147d56000830185614458565b6147e2602083018461469e565b9392505050565b60006080820190506147fe6000830187614458565b61480b602083018661469e565b6148186040830185614458565b614825606083018461469e565b95945050505050565b600060208201905061484360008301846144be565b92915050565b600060208201905061485e60008301846144cd565b92915050565b600060408201905061487960008301856144cd565b61488660208301846144cd565b9392505050565b600060208201905081810360008301526148a78184614524565b905092915050565b600060208201905081810360008301526148c98184614607565b905092915050565b60006020820190506148e6600083018461469e565b92915050565b6000604051905081810181811067ffffffffffffffff8211171561491357614912614b33565b5b8060405250919050565b600067ffffffffffffffff82111561493857614937614b33565b5b602082029050919050565b600067ffffffffffffffff82111561495e5761495d614b33565b5b601f19601f8301169050602081019050919050565b600067ffffffffffffffff82111561498e5761498d614b33565b5b601f19601f8301169050602081019050919050565b6000819050919050565b600060029050919050565b600081519050919050565b6000602082019050919050565b600081905092915050565b600082825260208201905092915050565b600082825260208201905092915050565b6000614a0882614a72565b9050919050565b60008115159050919050565b6000819050919050565b60007fffffffff0000000000000000000000000000000000000000000000000000000082169050919050565b6000819050614a5f82614b46565b919050565b600061ffff82169050919050565b600073ffffffffffffffffffffffffffffffffffffffff82169050919050565b6000819050919050565b600060ff82169050919050565b6000614ab482614acd565b9050919050565b6000614ac682614a51565b9050919050565b6000614ad882614adf565b9050919050565b6000614aea82614a72565b9050919050565b82818337600083830152505050565b60005b83811015614b1e578082015181840152602081019050614b03565b83811115614b2d576000848401525b50505050565bfe5b6000601f19601f8301169050919050565b60048110614b5757614b56614b33565b5b50565b614b63816149fd565b8114614b6e57600080fd5b50565b614b7a81614a0f565b8114614b8557600080fd5b50565b614b9181614a1b565b8114614b9c57600080fd5b50565b614ba881614a25565b8114614bb357600080fd5b50565b60048110614bc357600080fd5b50565b614bcf81614a64565b8114614bda57600080fd5b50565b614be681614a92565b8114614bf157600080fd5b50565b614bfd81614a9c565b8114614c0857600080fd5b5056fe456e756d657261626c655365743a20696e646578206f7574206f6620626f756e64734552433732315061757361626c653a20746f6b656e207472616e73666572207768696c6520706175736564416363657373436f6e74726f6c3a2073656e646572206d75737420626520616e2061646d696e20746f206772616e744552433732313a207472616e7366657220746f206e6f6e20455243373231526563656976657220696d706c656d656e7465724552433732315072657365744d696e7465725061757365724175746f49643a206d75737420686176652070617573657220726f6c6520746f2070617573654552433732313a207472616e7366657220746f20746865207a65726f2061646472657373416464726573733a20696e73756666696369656e742062616c616e636520666f722063616c6c4552433732313a206f70657261746f7220717565727920666f72206e6f6e6578697374656e7420746f6b656e416363657373436f6e74726f6c3a2073656e646572206d75737420626520616e2061646d696e20746f207265766f6b654552433732313a20617070726f76652063616c6c6572206973206e6f74206f776e6572206e6f7220617070726f76656420666f7220616c6c4552433732313a2062616c616e636520717565727920666f7220746865207a65726f20616464726573734552433732313a206f776e657220717565727920666f72206e6f6e6578697374656e7420746f6b656e456e756d657261626c654d61703a20696e646578206f7574206f6620626f756e64734552433732313a20617070726f76656420717565727920666f72206e6f6e6578697374656e7420746f6b656e4552433732313a207472616e73666572206f6620746f6b656e2074686174206973206e6f74206f776e4552433732314d657461646174613a2055524920717565727920666f72206e6f6e6578697374656e7420746f6b656e4552433732313a20617070726f76616c20746f2063757272656e74206f776e65724552433732313a207472616e736665722063616c6c6572206973206e6f74206f776e6572206e6f7220617070726f7665644552433732315072657365744d696e7465725061757365724175746f49643a206d7573742068617665206d696e74657220726f6c6520746f206d696e744552433732314275726e61626c653a2063616c6c6572206973206e6f74206f776e6572206e6f7220617070726f7665644552433732315072657365744d696e7465725061757365724175746f49643a206d75737420686176652070617573657220726f6c6520746f20756e7061757365416363657373436f6e74726f6c3a2063616e206f6e6c792072656e6f756e636520726f6c657320666f722073656c66a264697066735822122078fd2bb4821898d779152b8b17ef523e73c4982322b1e33d78e8775b9336de0364736f6c63430007050033",
  "immutableReferences": {},
  "source": "// SPDX-License-Identifier: MIT\npragma solidity ^0.7.5;\npragma abicoder v2;\n\nimport \"@openzeppelin/contracts/presets/ERC721PresetMinterPauserAutoId.sol\";\nimport \"./interfaces/IERC1948.sol\";\nimport \"./dBol.sol\";\nimport \"@openzeppelin/contracts/token/ERC20/IERC20.sol\";\n\n// @title Bill of Lading NFT Contract\n// @author Edward Amor\n// @notice Users should not directly interact with this contract\n// @dev All ERC721 functions are inherited from Openzeppelin ERC721 contract\ncontract BillOfLading is ERC721PresetMinterPauserAutoId, IERC1948 {\n    enum CardinalDirections {NORTH, EAST, SOUTH, WEST} // clock-wise ordering\n\n    /**\n        @param degree ranges from 0 to 90 for latitude and 0 to 180 for longitude\n        @param minute ranges from 0 to 60\n        @param second ranges from 0.0 to 60.0, since this can be a decimal number\n        and solidity only works with integers, we have to do some padding.\n        A standardized way to do this is simply provide a number within the range\n        of [0, 2 ^ 16 - 1], and to pad it with 3 zeros.\n        \n        Ex.\n        25.23 => 25230\n        59.98 => 59980\n        00.39 => 00390\n     */\n    struct GeoPosition {\n        uint8 degree;\n        uint8 minute;\n        uint16 second;\n        CardinalDirections cardinalDirection;\n    }\n\n    /**\n        @param quantity is the amount in MT (metric tons) since this is a decimal\n        we pad and make sure to leave the last 2 digits as the decimal numbers.\n\n        Ex. \n        28.1 MT => 2810\n        1289.32 MT => 128932\n     */\n    struct MintArgs {\n        address driver;\n        string serialNumber;\n        GeoPosition[2] origin;\n        GeoPosition[2] destination;\n        uint256 quantity;\n    }\n\n    event CreateBill(MintArgs arguments, address indexed to);\n\n    struct Bill {\n        address driver;\n        string serialNumber;\n        GeoPosition originLatitude;\n        GeoPosition originLongitude;\n        GeoPosition destinationLatitude;\n        GeoPosition destinationLongitude;\n        uint256 quantity;\n        uint256 timestamp;\n    }\n\n    Bill[] public bills;\n    mapping(uint256 => bytes32) data;\n\n    DBol dBOLContract;\n\n    /*\n     *     bytes4(keccak256('readData()')) == 0x70a08231\n     *     bytes4(keccak256('ownerOf(uint256)')) == 0x6352211e\n     *\n     *     => 0x37ebbc03 ^ 0xa983d43f == 0x9e68683c\n     */\n    bytes4 private constant _INTERFACE_ID_ERC1948 = 0x9e68683c;\n\n    constructor(\n        string memory name,\n        string memory symbol,\n        string memory baseURI,\n        address dbolContract\n    ) public ERC721PresetMinterPauserAutoId(name, symbol, baseURI) {\n        _registerInterface(_INTERFACE_ID_ERC1948);\n        dBOLContract = DBol(dbolContract);\n    }\n\n    /// @notice Create a Bill of Lading for a shipment\n    /// @dev User facing function which creates a bill\n    function createBillOfLading(\n        MintArgs memory _args,\n        address _funding,\n        uint256 _value\n    ) public {\n        require(\n            IERC20(_funding).allowance(msg.sender, address(this)) >= _value\n        );\n        bills.push(\n            Bill({\n                driver: _args.driver,\n                serialNumber: _args.serialNumber,\n                originLatitude: _args.origin[0],\n                originLongitude: _args.origin[1],\n                destinationLatitude: _args.destination[0],\n                destinationLongitude: _args.destination[1],\n                quantity: _args.quantity,\n                timestamp: block.timestamp\n            })\n        );\n        mint(msg.sender);\n        IERC20(_funding).transferFrom(msg.sender, address(this), _value);\n        IERC20(_funding).approve(address(dBOLContract), _value);\n        uint256 childToken = dBOLContract.createDBol(totalSupply() - 1);\n        dBOLContract.getERC20(address(this), childToken, _funding, _value);\n        emit CreateBill(_args, _args.driver);\n    }\n\n    /**\n     * @dev See `IERC1948.readData`.\n     *\n     * Requirements:\n     *\n     * - `tokenId` needs to exist.\n     */\n    function readData(uint256 tokenId)\n        external\n        view\n        override\n        returns (bytes32)\n    {\n        require(_exists(tokenId));\n        return data[tokenId];\n    }\n\n    /**\n     * @dev See `IERC1948.writeData`.\n     *\n     * Requirements:\n     *\n     * - `msg.sender` needs to be owner of `tokenId`.\n     */\n    function writeData(uint256 tokenId, bytes32 newData) external override {\n        require(msg.sender == ownerOf(tokenId));\n        emit DataUpdated(tokenId, data[tokenId], newData);\n        data[tokenId] = newData;\n    }\n}\n",
  "sourcePath": "/home/skelletor/projects/ethglobal/backend/contracts/BillOfLading.sol",
  "compiler": {
    "name": "solc",
    "version": "0.7.5+commit.eb77ed08.Emscripten.clang"
  },
  "schemaVersion": "3.3.3",
  "updatedAt": "2021-02-07T18:43:49.502Z",
  "devdoc": {
    "kind": "dev",
    "methods": {
      "approve(address,uint256)": {
        "details": "See {IERC721-approve}."
      },
      "balanceOf(address)": {
        "details": "See {IERC721-balanceOf}."
      },
      "baseURI()": {
        "details": "Returns the base URI set via {_setBaseURI}. This will be automatically added as a prefix in {tokenURI} to each token's URI, or to the token ID if no specific URI is set for that token ID."
      },
      "burn(uint256)": {
        "details": "Burns `tokenId`. See {ERC721-_burn}. Requirements: - The caller must own `tokenId` or be an approved operator."
      },
      "createBillOfLading((address,string,(uint8,uint8,uint16,uint8)[2],(uint8,uint8,uint16,uint8)[2],uint256),address,uint256)": {
        "details": "User facing function which creates a bill"
      },
      "getApproved(uint256)": {
        "details": "See {IERC721-getApproved}."
      },
      "getRoleAdmin(bytes32)": {
        "details": "Returns the admin role that controls `role`. See {grantRole} and {revokeRole}. To change a role's admin, use {_setRoleAdmin}."
      },
      "getRoleMember(bytes32,uint256)": {
        "details": "Returns one of the accounts that have `role`. `index` must be a value between 0 and {getRoleMemberCount}, non-inclusive. Role bearers are not sorted in any particular way, and their ordering may change at any point. WARNING: When using {getRoleMember} and {getRoleMemberCount}, make sure you perform all queries on the same block. See the following https://forum.openzeppelin.com/t/iterating-over-elements-on-enumerableset-in-openzeppelin-contracts/2296[forum post] for more information."
      },
      "getRoleMemberCount(bytes32)": {
        "details": "Returns the number of accounts that have `role`. Can be used together with {getRoleMember} to enumerate all bearers of a role."
      },
      "grantRole(bytes32,address)": {
        "details": "Grants `role` to `account`. If `account` had not been already granted `role`, emits a {RoleGranted} event. Requirements: - the caller must have ``role``'s admin role."
      },
      "hasRole(bytes32,address)": {
        "details": "Returns `true` if `account` has been granted `role`."
      },
      "isApprovedForAll(address,address)": {
        "details": "See {IERC721-isApprovedForAll}."
      },
      "mint(address)": {
        "details": "Creates a new token for `to`. Its token ID will be automatically assigned (and available on the emitted {IERC721-Transfer} event), and the token URI autogenerated based on the base URI passed at construction. See {ERC721-_mint}. Requirements: - the caller must have the `MINTER_ROLE`."
      },
      "name()": {
        "details": "See {IERC721Metadata-name}."
      },
      "ownerOf(uint256)": {
        "details": "See {IERC721-ownerOf}."
      },
      "pause()": {
        "details": "Pauses all token transfers. See {ERC721Pausable} and {Pausable-_pause}. Requirements: - the caller must have the `PAUSER_ROLE`."
      },
      "paused()": {
        "details": "Returns true if the contract is paused, and false otherwise."
      },
      "readData(uint256)": {
        "details": "See `IERC1948.readData`. Requirements: - `tokenId` needs to exist."
      },
      "renounceRole(bytes32,address)": {
        "details": "Revokes `role` from the calling account. Roles are often managed via {grantRole} and {revokeRole}: this function's purpose is to provide a mechanism for accounts to lose their privileges if they are compromised (such as when a trusted device is misplaced). If the calling account had been granted `role`, emits a {RoleRevoked} event. Requirements: - the caller must be `account`."
      },
      "revokeRole(bytes32,address)": {
        "details": "Revokes `role` from `account`. If `account` had been granted `role`, emits a {RoleRevoked} event. Requirements: - the caller must have ``role``'s admin role."
      },
      "safeTransferFrom(address,address,uint256)": {
        "details": "See {IERC721-safeTransferFrom}."
      },
      "safeTransferFrom(address,address,uint256,bytes)": {
        "details": "See {IERC721-safeTransferFrom}."
      },
      "setApprovalForAll(address,bool)": {
        "details": "See {IERC721-setApprovalForAll}."
      },
      "supportsInterface(bytes4)": {
        "details": "See {IERC165-supportsInterface}. Time complexity O(1), guaranteed to always use less than 30 000 gas."
      },
      "symbol()": {
        "details": "See {IERC721Metadata-symbol}."
      },
      "tokenByIndex(uint256)": {
        "details": "See {IERC721Enumerable-tokenByIndex}."
      },
      "tokenOfOwnerByIndex(address,uint256)": {
        "details": "See {IERC721Enumerable-tokenOfOwnerByIndex}."
      },
      "tokenURI(uint256)": {
        "details": "See {IERC721Metadata-tokenURI}."
      },
      "totalSupply()": {
        "details": "See {IERC721Enumerable-totalSupply}."
      },
      "transferFrom(address,address,uint256)": {
        "details": "See {IERC721-transferFrom}."
      },
      "unpause()": {
        "details": "Unpauses all token transfers. See {ERC721Pausable} and {Pausable-_unpause}. Requirements: - the caller must have the `PAUSER_ROLE`."
      },
      "writeData(uint256,bytes32)": {
        "details": "See `IERC1948.writeData`. Requirements: - `msg.sender` needs to be owner of `tokenId`."
      }
    },
    "version": 1
  },
  "userdoc": {
    "kind": "user",
    "methods": {
      "createBillOfLading((address,string,(uint8,uint8,uint16,uint8)[2],(uint8,uint8,uint16,uint8)[2],uint256),address,uint256)": {
        "notice": "Create a Bill of Lading for a shipment"
      }
    },
    "version": 1
  }
}