{
  "contractName": "BillOfLading",
  "abi": [
    {
      "inputs": [
        {
          "internalType": "string",
          "name": "name",
          "type": "string"
        },
        {
          "internalType": "string",
          "name": "symbol",
          "type": "string"
        },
        {
          "internalType": "string",
          "name": "baseURI",
          "type": "string"
        },
        {
          "internalType": "address",
          "name": "dbolContract",
          "type": "address"
        }
      ],
      "stateMutability": "nonpayable",
      "type": "constructor"
    },
    {
      "anonymous": false,
      "inputs": [
        {
          "indexed": true,
          "internalType": "address",
          "name": "owner",
          "type": "address"
        },
        {
          "indexed": true,
          "internalType": "address",
          "name": "approved",
          "type": "address"
        },
        {
          "indexed": true,
          "internalType": "uint256",
          "name": "tokenId",
          "type": "uint256"
        }
      ],
      "name": "Approval",
      "type": "event"
    },
    {
      "anonymous": false,
      "inputs": [
        {
          "indexed": true,
          "internalType": "address",
          "name": "owner",
          "type": "address"
        },
        {
          "indexed": true,
          "internalType": "address",
          "name": "operator",
          "type": "address"
        },
        {
          "indexed": false,
          "internalType": "bool",
          "name": "approved",
          "type": "bool"
        }
      ],
      "name": "ApprovalForAll",
      "type": "event"
    },
    {
      "anonymous": false,
      "inputs": [
        {
          "indexed": true,
          "internalType": "uint256",
          "name": "tokenId",
          "type": "uint256"
        },
        {
          "indexed": false,
          "internalType": "bytes32",
          "name": "oldData",
          "type": "bytes32"
        },
        {
          "indexed": false,
          "internalType": "bytes32",
          "name": "newData",
          "type": "bytes32"
        }
      ],
      "name": "DataUpdated",
      "type": "event"
    },
    {
      "anonymous": false,
      "inputs": [
        {
          "indexed": false,
          "internalType": "address",
          "name": "account",
          "type": "address"
        }
      ],
      "name": "Paused",
      "type": "event"
    },
    {
      "anonymous": false,
      "inputs": [
        {
          "indexed": true,
          "internalType": "bytes32",
          "name": "role",
          "type": "bytes32"
        },
        {
          "indexed": true,
          "internalType": "bytes32",
          "name": "previousAdminRole",
          "type": "bytes32"
        },
        {
          "indexed": true,
          "internalType": "bytes32",
          "name": "newAdminRole",
          "type": "bytes32"
        }
      ],
      "name": "RoleAdminChanged",
      "type": "event"
    },
    {
      "anonymous": false,
      "inputs": [
        {
          "indexed": true,
          "internalType": "bytes32",
          "name": "role",
          "type": "bytes32"
        },
        {
          "indexed": true,
          "internalType": "address",
          "name": "account",
          "type": "address"
        },
        {
          "indexed": true,
          "internalType": "address",
          "name": "sender",
          "type": "address"
        }
      ],
      "name": "RoleGranted",
      "type": "event"
    },
    {
      "anonymous": false,
      "inputs": [
        {
          "indexed": true,
          "internalType": "bytes32",
          "name": "role",
          "type": "bytes32"
        },
        {
          "indexed": true,
          "internalType": "address",
          "name": "account",
          "type": "address"
        },
        {
          "indexed": true,
          "internalType": "address",
          "name": "sender",
          "type": "address"
        }
      ],
      "name": "RoleRevoked",
      "type": "event"
    },
    {
      "anonymous": false,
      "inputs": [
        {
          "indexed": true,
          "internalType": "address",
          "name": "from",
          "type": "address"
        },
        {
          "indexed": true,
          "internalType": "address",
          "name": "to",
          "type": "address"
        },
        {
          "indexed": true,
          "internalType": "uint256",
          "name": "tokenId",
          "type": "uint256"
        }
      ],
      "name": "Transfer",
      "type": "event"
    },
    {
      "anonymous": false,
      "inputs": [
        {
          "indexed": false,
          "internalType": "address",
          "name": "account",
          "type": "address"
        }
      ],
      "name": "Unpaused",
      "type": "event"
    },
    {
      "inputs": [],
      "name": "DEFAULT_ADMIN_ROLE",
      "outputs": [
        {
          "internalType": "bytes32",
          "name": "",
          "type": "bytes32"
        }
      ],
      "stateMutability": "view",
      "type": "function",
      "constant": true
    },
    {
      "inputs": [],
      "name": "MINTER_ROLE",
      "outputs": [
        {
          "internalType": "bytes32",
          "name": "",
          "type": "bytes32"
        }
      ],
      "stateMutability": "view",
      "type": "function",
      "constant": true
    },
    {
      "inputs": [],
      "name": "PAUSER_ROLE",
      "outputs": [
        {
          "internalType": "bytes32",
          "name": "",
          "type": "bytes32"
        }
      ],
      "stateMutability": "view",
      "type": "function",
      "constant": true
    },
    {
      "inputs": [
        {
          "internalType": "address",
          "name": "to",
          "type": "address"
        },
        {
          "internalType": "uint256",
          "name": "tokenId",
          "type": "uint256"
        }
      ],
      "name": "approve",
      "outputs": [],
      "stateMutability": "nonpayable",
      "type": "function"
    },
    {
      "inputs": [
        {
          "internalType": "address",
          "name": "owner",
          "type": "address"
        }
      ],
      "name": "balanceOf",
      "outputs": [
        {
          "internalType": "uint256",
          "name": "",
          "type": "uint256"
        }
      ],
      "stateMutability": "view",
      "type": "function",
      "constant": true
    },
    {
      "inputs": [],
      "name": "baseURI",
      "outputs": [
        {
          "internalType": "string",
          "name": "",
          "type": "string"
        }
      ],
      "stateMutability": "view",
      "type": "function",
      "constant": true
    },
    {
      "inputs": [
        {
          "internalType": "uint256",
          "name": "",
          "type": "uint256"
        }
      ],
      "name": "bills",
      "outputs": [
        {
          "internalType": "address",
          "name": "driver",
          "type": "address"
        },
        {
          "internalType": "string",
          "name": "serialNumber",
          "type": "string"
        },
        {
          "components": [
            {
              "internalType": "uint8",
              "name": "degree",
              "type": "uint8"
            },
            {
              "internalType": "uint8",
              "name": "minute",
              "type": "uint8"
            },
            {
              "internalType": "uint16",
              "name": "second",
              "type": "uint16"
            },
            {
              "internalType": "enum BillOfLading.CardinalDirections",
              "name": "cardinalDirection",
              "type": "uint8"
            }
          ],
          "internalType": "struct BillOfLading.GeoPosition",
          "name": "originLatitude",
          "type": "tuple"
        },
        {
          "components": [
            {
              "internalType": "uint8",
              "name": "degree",
              "type": "uint8"
            },
            {
              "internalType": "uint8",
              "name": "minute",
              "type": "uint8"
            },
            {
              "internalType": "uint16",
              "name": "second",
              "type": "uint16"
            },
            {
              "internalType": "enum BillOfLading.CardinalDirections",
              "name": "cardinalDirection",
              "type": "uint8"
            }
          ],
          "internalType": "struct BillOfLading.GeoPosition",
          "name": "originLongitude",
          "type": "tuple"
        },
        {
          "components": [
            {
              "internalType": "uint8",
              "name": "degree",
              "type": "uint8"
            },
            {
              "internalType": "uint8",
              "name": "minute",
              "type": "uint8"
            },
            {
              "internalType": "uint16",
              "name": "second",
              "type": "uint16"
            },
            {
              "internalType": "enum BillOfLading.CardinalDirections",
              "name": "cardinalDirection",
              "type": "uint8"
            }
          ],
          "internalType": "struct BillOfLading.GeoPosition",
          "name": "destinationLatitude",
          "type": "tuple"
        },
        {
          "components": [
            {
              "internalType": "uint8",
              "name": "degree",
              "type": "uint8"
            },
            {
              "internalType": "uint8",
              "name": "minute",
              "type": "uint8"
            },
            {
              "internalType": "uint16",
              "name": "second",
              "type": "uint16"
            },
            {
              "internalType": "enum BillOfLading.CardinalDirections",
              "name": "cardinalDirection",
              "type": "uint8"
            }
          ],
          "internalType": "struct BillOfLading.GeoPosition",
          "name": "destinationLongitude",
          "type": "tuple"
        },
        {
          "internalType": "uint256",
          "name": "quantity",
          "type": "uint256"
        },
        {
          "internalType": "uint256",
          "name": "timestamp",
          "type": "uint256"
        }
      ],
      "stateMutability": "view",
      "type": "function",
      "constant": true
    },
    {
      "inputs": [
        {
          "internalType": "uint256",
          "name": "tokenId",
          "type": "uint256"
        }
      ],
      "name": "burn",
      "outputs": [],
      "stateMutability": "nonpayable",
      "type": "function"
    },
    {
      "inputs": [
        {
          "internalType": "uint256",
          "name": "tokenId",
          "type": "uint256"
        }
      ],
      "name": "getApproved",
      "outputs": [
        {
          "internalType": "address",
          "name": "",
          "type": "address"
        }
      ],
      "stateMutability": "view",
      "type": "function",
      "constant": true
    },
    {
      "inputs": [
        {
          "internalType": "bytes32",
          "name": "role",
          "type": "bytes32"
        }
      ],
      "name": "getRoleAdmin",
      "outputs": [
        {
          "internalType": "bytes32",
          "name": "",
          "type": "bytes32"
        }
      ],
      "stateMutability": "view",
      "type": "function",
      "constant": true
    },
    {
      "inputs": [
        {
          "internalType": "bytes32",
          "name": "role",
          "type": "bytes32"
        },
        {
          "internalType": "uint256",
          "name": "index",
          "type": "uint256"
        }
      ],
      "name": "getRoleMember",
      "outputs": [
        {
          "internalType": "address",
          "name": "",
          "type": "address"
        }
      ],
      "stateMutability": "view",
      "type": "function",
      "constant": true
    },
    {
      "inputs": [
        {
          "internalType": "bytes32",
          "name": "role",
          "type": "bytes32"
        }
      ],
      "name": "getRoleMemberCount",
      "outputs": [
        {
          "internalType": "uint256",
          "name": "",
          "type": "uint256"
        }
      ],
      "stateMutability": "view",
      "type": "function",
      "constant": true
    },
    {
      "inputs": [
        {
          "internalType": "bytes32",
          "name": "role",
          "type": "bytes32"
        },
        {
          "internalType": "address",
          "name": "account",
          "type": "address"
        }
      ],
      "name": "grantRole",
      "outputs": [],
      "stateMutability": "nonpayable",
      "type": "function"
    },
    {
      "inputs": [
        {
          "internalType": "bytes32",
          "name": "role",
          "type": "bytes32"
        },
        {
          "internalType": "address",
          "name": "account",
          "type": "address"
        }
      ],
      "name": "hasRole",
      "outputs": [
        {
          "internalType": "bool",
          "name": "",
          "type": "bool"
        }
      ],
      "stateMutability": "view",
      "type": "function",
      "constant": true
    },
    {
      "inputs": [
        {
          "internalType": "address",
          "name": "owner",
          "type": "address"
        },
        {
          "internalType": "address",
          "name": "operator",
          "type": "address"
        }
      ],
      "name": "isApprovedForAll",
      "outputs": [
        {
          "internalType": "bool",
          "name": "",
          "type": "bool"
        }
      ],
      "stateMutability": "view",
      "type": "function",
      "constant": true
    },
    {
      "inputs": [
        {
          "internalType": "address",
          "name": "to",
          "type": "address"
        }
      ],
      "name": "mint",
      "outputs": [],
      "stateMutability": "nonpayable",
      "type": "function"
    },
    {
      "inputs": [],
      "name": "name",
      "outputs": [
        {
          "internalType": "string",
          "name": "",
          "type": "string"
        }
      ],
      "stateMutability": "view",
      "type": "function",
      "constant": true
    },
    {
      "inputs": [
        {
          "internalType": "uint256",
          "name": "tokenId",
          "type": "uint256"
        }
      ],
      "name": "ownerOf",
      "outputs": [
        {
          "internalType": "address",
          "name": "",
          "type": "address"
        }
      ],
      "stateMutability": "view",
      "type": "function",
      "constant": true
    },
    {
      "inputs": [],
      "name": "pause",
      "outputs": [],
      "stateMutability": "nonpayable",
      "type": "function"
    },
    {
      "inputs": [],
      "name": "paused",
      "outputs": [
        {
          "internalType": "bool",
          "name": "",
          "type": "bool"
        }
      ],
      "stateMutability": "view",
      "type": "function",
      "constant": true
    },
    {
      "inputs": [
        {
          "internalType": "bytes32",
          "name": "role",
          "type": "bytes32"
        },
        {
          "internalType": "address",
          "name": "account",
          "type": "address"
        }
      ],
      "name": "renounceRole",
      "outputs": [],
      "stateMutability": "nonpayable",
      "type": "function"
    },
    {
      "inputs": [
        {
          "internalType": "bytes32",
          "name": "role",
          "type": "bytes32"
        },
        {
          "internalType": "address",
          "name": "account",
          "type": "address"
        }
      ],
      "name": "revokeRole",
      "outputs": [],
      "stateMutability": "nonpayable",
      "type": "function"
    },
    {
      "inputs": [
        {
          "internalType": "address",
          "name": "from",
          "type": "address"
        },
        {
          "internalType": "address",
          "name": "to",
          "type": "address"
        },
        {
          "internalType": "uint256",
          "name": "tokenId",
          "type": "uint256"
        }
      ],
      "name": "safeTransferFrom",
      "outputs": [],
      "stateMutability": "nonpayable",
      "type": "function"
    },
    {
      "inputs": [
        {
          "internalType": "address",
          "name": "from",
          "type": "address"
        },
        {
          "internalType": "address",
          "name": "to",
          "type": "address"
        },
        {
          "internalType": "uint256",
          "name": "tokenId",
          "type": "uint256"
        },
        {
          "internalType": "bytes",
          "name": "_data",
          "type": "bytes"
        }
      ],
      "name": "safeTransferFrom",
      "outputs": [],
      "stateMutability": "nonpayable",
      "type": "function"
    },
    {
      "inputs": [
        {
          "internalType": "address",
          "name": "operator",
          "type": "address"
        },
        {
          "internalType": "bool",
          "name": "approved",
          "type": "bool"
        }
      ],
      "name": "setApprovalForAll",
      "outputs": [],
      "stateMutability": "nonpayable",
      "type": "function"
    },
    {
      "inputs": [
        {
          "internalType": "bytes4",
          "name": "interfaceId",
          "type": "bytes4"
        }
      ],
      "name": "supportsInterface",
      "outputs": [
        {
          "internalType": "bool",
          "name": "",
          "type": "bool"
        }
      ],
      "stateMutability": "view",
      "type": "function",
      "constant": true
    },
    {
      "inputs": [],
      "name": "symbol",
      "outputs": [
        {
          "internalType": "string",
          "name": "",
          "type": "string"
        }
      ],
      "stateMutability": "view",
      "type": "function",
      "constant": true
    },
    {
      "inputs": [
        {
          "internalType": "uint256",
          "name": "index",
          "type": "uint256"
        }
      ],
      "name": "tokenByIndex",
      "outputs": [
        {
          "internalType": "uint256",
          "name": "",
          "type": "uint256"
        }
      ],
      "stateMutability": "view",
      "type": "function",
      "constant": true
    },
    {
      "inputs": [
        {
          "internalType": "address",
          "name": "owner",
          "type": "address"
        },
        {
          "internalType": "uint256",
          "name": "index",
          "type": "uint256"
        }
      ],
      "name": "tokenOfOwnerByIndex",
      "outputs": [
        {
          "internalType": "uint256",
          "name": "",
          "type": "uint256"
        }
      ],
      "stateMutability": "view",
      "type": "function",
      "constant": true
    },
    {
      "inputs": [
        {
          "internalType": "uint256",
          "name": "tokenId",
          "type": "uint256"
        }
      ],
      "name": "tokenURI",
      "outputs": [
        {
          "internalType": "string",
          "name": "",
          "type": "string"
        }
      ],
      "stateMutability": "view",
      "type": "function",
      "constant": true
    },
    {
      "inputs": [],
      "name": "totalSupply",
      "outputs": [
        {
          "internalType": "uint256",
          "name": "",
          "type": "uint256"
        }
      ],
      "stateMutability": "view",
      "type": "function",
      "constant": true
    },
    {
      "inputs": [
        {
          "internalType": "address",
          "name": "from",
          "type": "address"
        },
        {
          "internalType": "address",
          "name": "to",
          "type": "address"
        },
        {
          "internalType": "uint256",
          "name": "tokenId",
          "type": "uint256"
        }
      ],
      "name": "transferFrom",
      "outputs": [],
      "stateMutability": "nonpayable",
      "type": "function"
    },
    {
      "inputs": [],
      "name": "unpause",
      "outputs": [],
      "stateMutability": "nonpayable",
      "type": "function"
    },
    {
      "inputs": [
        {
          "components": [
            {
              "internalType": "address",
              "name": "driver",
              "type": "address"
            },
            {
              "internalType": "string",
              "name": "serialNumber",
              "type": "string"
            },
            {
              "components": [
                {
                  "internalType": "uint8",
                  "name": "degree",
                  "type": "uint8"
                },
                {
                  "internalType": "uint8",
                  "name": "minute",
                  "type": "uint8"
                },
                {
                  "internalType": "uint16",
                  "name": "second",
                  "type": "uint16"
                },
                {
                  "internalType": "enum BillOfLading.CardinalDirections",
                  "name": "cardinalDirection",
                  "type": "uint8"
                }
              ],
              "internalType": "struct BillOfLading.GeoPosition[2]",
              "name": "origin",
              "type": "tuple[2]"
            },
            {
              "components": [
                {
                  "internalType": "uint8",
                  "name": "degree",
                  "type": "uint8"
                },
                {
                  "internalType": "uint8",
                  "name": "minute",
                  "type": "uint8"
                },
                {
                  "internalType": "uint16",
                  "name": "second",
                  "type": "uint16"
                },
                {
                  "internalType": "enum BillOfLading.CardinalDirections",
                  "name": "cardinalDirection",
                  "type": "uint8"
                }
              ],
              "internalType": "struct BillOfLading.GeoPosition[2]",
              "name": "destination",
              "type": "tuple[2]"
            },
            {
              "internalType": "uint256",
              "name": "quantity",
              "type": "uint256"
            }
          ],
          "internalType": "struct BillOfLading.MintArgs",
          "name": "_args",
          "type": "tuple"
        },
        {
          "internalType": "address",
          "name": "_funding",
          "type": "address"
        },
        {
          "internalType": "uint256",
          "name": "_value",
          "type": "uint256"
        }
      ],
      "name": "createBillOfLading",
      "outputs": [],
      "stateMutability": "nonpayable",
      "type": "function"
    },
    {
      "inputs": [
        {
          "internalType": "uint256",
          "name": "tokenId",
          "type": "uint256"
        }
      ],
      "name": "readData",
      "outputs": [
        {
          "internalType": "bytes32",
          "name": "",
          "type": "bytes32"
        }
      ],
      "stateMutability": "view",
      "type": "function",
      "constant": true
    },
    {
      "inputs": [
        {
          "internalType": "uint256",
          "name": "tokenId",
          "type": "uint256"
        },
        {
          "internalType": "bytes32",
          "name": "newData",
          "type": "bytes32"
        }
      ],
      "name": "writeData",
      "outputs": [],
      "stateMutability": "nonpayable",
      "type": "function"
    }
  ],
  "bytecode": "0x60806040523480156200001157600080fd5b506040516200558c3803806200558c8339818101604052810190620000379190620005ec565b8383838282620000546301ffc9a760e01b6200020860201b60201c565b81600790805190602001906200006c929190620004c3565b50806008908051906020019062000085929190620004c3565b506200009e6380ac58cd60e01b6200020860201b60201c565b620000b6635b5e139f60e01b6200020860201b60201c565b620000ce63780e9d6360e01b6200020860201b60201c565b50506000600b60006101000a81548160ff0219169083151502179055506200010f6000801b620001036200031160201b60201c565b6200031960201b60201c565b620001507f9f2df0fed2c77648de5860a4cc508cd0818c85b8b8a1ab4ceeef8d981c8956a6620001446200031160201b60201c565b6200031960201b60201c565b620001917f65d7a28e3265b37a6474929f336521b332c1681b933f6cb9f3376673440d862a620001856200031160201b60201c565b6200031960201b60201c565b620001a2816200032f60201b60201c565b505050620001bd639e68683c60e01b6200020860201b60201c565b80600f60006101000a81548173ffffffffffffffffffffffffffffffffffffffff021916908373ffffffffffffffffffffffffffffffffffffffff1602179055505050505062000790565b63ffffffff60e01b817bffffffffffffffffffffffffffffffffffffffffffffffffffffffff19161415620002a5576040517f08c379a000000000000000000000000000000000000000000000000000000000815260040180806020018281038252601c8152602001807f4552433136353a20696e76616c696420696e746572666163652069640000000081525060200191505060405180910390fd5b6001806000837bffffffffffffffffffffffffffffffffffffffffffffffffffffffff19167bffffffffffffffffffffffffffffffffffffffffffffffffffffffff1916815260200190815260200160002060006101000a81548160ff02191690831515021790555050565b600033905090565b6200032b82826200034b60201b60201c565b5050565b80600a908051906020019062000347929190620004c3565b5050565b6200037981600080858152602001908152602001600020600001620003ee60201b6200232e1790919060201c565b15620003ea576200038f6200031160201b60201c565b73ffffffffffffffffffffffffffffffffffffffff168173ffffffffffffffffffffffffffffffffffffffff16837f2f8788117e7eff1d82e926ec794901d17c78024a50270940304540a733656f0d60405160405180910390a45b5050565b60006200041e836000018373ffffffffffffffffffffffffffffffffffffffff1660001b6200042660201b60201c565b905092915050565b60006200043a8383620004a060201b60201c565b620004955782600001829080600181540180825580915050600190039060005260206000200160009091909190915055826000018054905083600101600084815260200190815260200160002081905550600190506200049a565b600090505b92915050565b600080836001016000848152602001908152602001600020541415905092915050565b828054600181600116156101000203166002900490600052602060002090601f016020900481019282620004fb576000855562000547565b82601f106200051657805160ff191683800117855562000547565b8280016001018555821562000547579182015b828111156200054657825182559160200191906001019062000529565b5b5090506200055691906200055a565b5090565b5b80821115620005755760008160009055506001016200055b565b5090565b6000815190506200058a8162000776565b92915050565b600082601f830112620005a257600080fd5b8151620005b9620005b382620006d7565b620006a3565b91508082526020830160208301858383011115620005d657600080fd5b620005e38382846200073e565b50505092915050565b600080600080608085870312156200060357600080fd5b600085015167ffffffffffffffff8111156200061e57600080fd5b6200062c8782880162000590565b945050602085015167ffffffffffffffff8111156200064a57600080fd5b620006588782880162000590565b935050604085015167ffffffffffffffff8111156200067657600080fd5b620006848782880162000590565b9250506060620006978782880162000579565b91505092959194509250565b6000604051905081810181811067ffffffffffffffff82111715620006cd57620006cc62000774565b5b8060405250919050565b600067ffffffffffffffff821115620006f557620006f462000774565b5b601f19601f8301169050602081019050919050565b600062000717826200071e565b9050919050565b600073ffffffffffffffffffffffffffffffffffffffff82169050919050565b60005b838110156200075e57808201518184015260208101905062000741565b838111156200076e576000848401525b50505050565bfe5b62000781816200070a565b81146200078d57600080fd5b50565b614dec80620007a06000396000f3fe608060405234801561001057600080fd5b506004361061021c5760003560e01c80636352211e11610125578063a22cb465116100ad578063ca15c8731161007c578063ca15c87314610664578063d539139314610694578063d547741f146106b2578063e63ab1e9146106ce578063e985e9c5146106ec5761021c565b8063a22cb465146105e0578063a983d43f146105fc578063b88d4fde14610618578063c87b56dd146106345761021c565b80638456cb59116100f45780638456cb591461053a5780639010d07c1461054457806391d148541461057457806395d89b41146105a4578063a217fddf146105c25761021c565b80636352211e146104a05780636a627842146104d05780636c0360eb146104ec57806370a082311461050a5761021c565b80632f2ff15d116101a85780633f4ba83a116101775780633f4ba83a1461041057806342842e0e1461041a57806342966c68146104365780634f6ccce7146104525780635c975abb146104825761021c565b80632f2ff15d146103785780632f745c591461039457806336568abe146103c457806337ebbc03146103e05761021c565b806318160ddd116101ef57806318160ddd146102bb5780632003e4e6146102d957806323b872dd146102f5578063248a9ca31461031157806328bdcde8146103415761021c565b806301ffc9a71461022157806306fdde0314610251578063081812fc1461026f578063095ea7b31461029f575b600080fd5b61023b600480360381019061023691906142b2565b61071c565b6040516102489190614648565b60405180910390f35b610259610784565b60405161026691906146a7565b60405180910390f35b61028960048036038101906102849190614342565b610826565b60405161029691906144d6565b60405180910390f35b6102b960048036038101906102b491906141ac565b6108c1565b005b6102c3610a05565b6040516102d091906146c9565b60405180910390f35b6102f360048036038101906102ee91906142db565b610a16565b005b61030f600480360381019061030a91906140a6565b611103565b005b61032b60048036038101906103269190614211565b611179565b6040516103389190614663565b60405180910390f35b61035b60048036038101906103569190614342565b611198565b60405161036f989796959493929190614551565b60405180910390f35b610392600480360381019061038d919061423a565b6114ec565b005b6103ae60048036038101906103a991906141ac565b611575565b6040516103bb91906146c9565b60405180910390f35b6103de60048036038101906103d9919061423a565b6115d0565b005b6103fa60048036038101906103f59190614342565b611669565b6040516104079190614663565b60405180910390f35b610418611698565b005b610434600480360381019061042f91906140a6565b611728565b005b610450600480360381019061044b9190614342565b611748565b005b61046c60048036038101906104679190614342565b6117ba565b60405161047991906146c9565b60405180910390f35b61048a6117dd565b6040516104979190614648565b60405180910390f35b6104ba60048036038101906104b59190614342565b6117f4565b6040516104c791906144d6565b60405180910390f35b6104ea60048036038101906104e59190614041565b61182b565b005b6104f46118d1565b60405161050191906146a7565b60405180910390f35b610524600480360381019061051f9190614041565b611973565b60405161053191906146c9565b60405180910390f35b610542611a48565b005b61055e60048036038101906105599190614276565b611ad8565b60405161056b91906144d6565b60405180910390f35b61058e6004803603810190610589919061423a565b611b09565b60405161059b9190614648565b60405180910390f35b6105ac611b3a565b6040516105b991906146a7565b60405180910390f35b6105ca611bdc565b6040516105d79190614663565b60405180910390f35b6105fa60048036038101906105f59190614170565b611be3565b005b61061660048036038101906106119190614394565b611d99565b005b610632600480360381019061062d91906140f5565b611e42565b005b61064e60048036038101906106499190614342565b611eba565b60405161065b91906146a7565b60405180910390f35b61067e60048036038101906106799190614211565b6121a3565b60405161068b91906146c9565b60405180910390f35b61069c6121c9565b6040516106a99190614663565b60405180910390f35b6106cc60048036038101906106c7919061423a565b6121ed565b005b6106d6612276565b6040516106e39190614663565b60405180910390f35b6107066004803603810190610701919061406a565b61229a565b6040516107139190614648565b60405180910390f35b600060016000837bffffffffffffffffffffffffffffffffffffffffffffffffffffffff19167bffffffffffffffffffffffffffffffffffffffffffffffffffffffff1916815260200190815260200160002060009054906101000a900460ff169050919050565b606060078054600181600116156101000203166002900480601f01602080910402602001604051908101604052809291908181526020018280546001816001161561010002031660029004801561081c5780601f106107f15761010080835404028352916020019161081c565b820191906000526020600020905b8154815290600101906020018083116107ff57829003601f168201915b5050505050905090565b60006108318261235e565b610886576040517f08c379a000000000000000000000000000000000000000000000000000000000815260040180806020018281038252602c815260200180614c05602c913960400191505060405180910390fd5b6005600083815260200190815260200160002060009054906101000a900473ffffffffffffffffffffffffffffffffffffffff169050919050565b60006108cc826117f4565b90508073ffffffffffffffffffffffffffffffffffffffff168373ffffffffffffffffffffffffffffffffffffffff161415610953576040517f08c379a0000000000000000000000000000000000000000000000000000000008152600401808060200182810382526021815260200180614c896021913960400191505060405180910390fd5b8073ffffffffffffffffffffffffffffffffffffffff1661097261237b565b73ffffffffffffffffffffffffffffffffffffffff1614806109a157506109a08161099b61237b565b61229a565b5b6109f6576040517f08c379a0000000000000000000000000000000000000000000000000000000008152600401808060200182810382526038815260200180614b586038913960400191505060405180910390fd5b610a008383612383565b505050565b6000610a11600361243c565b905090565b808273ffffffffffffffffffffffffffffffffffffffff1663dd62ed3e33306040518363ffffffff1660e01b8152600401610a529291906144f1565b60206040518083038186803b158015610a6a57600080fd5b505afa158015610a7e573d6000803e3d6000fd5b505050506040513d601f19601f82011682018060405250810190610aa2919061436b565b1015610aad57600080fd5b600d604051806101000160405280856000015173ffffffffffffffffffffffffffffffffffffffff168152602001856020015181526020018560400151600060028110610af657fe5b602002015181526020018560400151600160028110610b1157fe5b602002015181526020018560600151600060028110610b2c57fe5b602002015181526020018560600151600160028110610b4757fe5b602002015181526020018560800151815260200142815250908060018154018082558091505060019003906000526020600020906008020160009091909190915060008201518160000160006101000a81548173ffffffffffffffffffffffffffffffffffffffff021916908373ffffffffffffffffffffffffffffffffffffffff1602179055506020820151816001019080519060200190610beb929190613c49565b5060408201518160020160008201518160000160006101000a81548160ff021916908360ff16021790555060208201518160000160016101000a81548160ff021916908360ff16021790555060408201518160000160026101000a81548161ffff021916908361ffff16021790555060608201518160000160046101000a81548160ff02191690836003811115610c7e57fe5b0217905550505060608201518160030160008201518160000160006101000a81548160ff021916908360ff16021790555060208201518160000160016101000a81548160ff021916908360ff16021790555060408201518160000160026101000a81548161ffff021916908361ffff16021790555060608201518160000160046101000a81548160ff02191690836003811115610d1757fe5b0217905550505060808201518160040160008201518160000160006101000a81548160ff021916908360ff16021790555060208201518160000160016101000a81548160ff021916908360ff16021790555060408201518160000160026101000a81548161ffff021916908361ffff16021790555060608201518160000160046101000a81548160ff02191690836003811115610db057fe5b0217905550505060a08201518160050160008201518160000160006101000a81548160ff021916908360ff16021790555060208201518160000160016101000a81548160ff021916908360ff16021790555060408201518160000160026101000a81548161ffff021916908361ffff16021790555060608201518160000160046101000a81548160ff02191690836003811115610e4957fe5b0217905550505060c0820151816006015560e082015181600701555050610e6f3361182b565b8173ffffffffffffffffffffffffffffffffffffffff166323b872dd3330846040518463ffffffff1660e01b8152600401610eac9392919061451a565b602060405180830381600087803b158015610ec657600080fd5b505af1158015610eda573d6000803e3d6000fd5b505050506040513d601f19601f82011682018060405250810190610efe91906141e8565b508173ffffffffffffffffffffffffffffffffffffffff1663095ea7b3600f60009054906101000a900473ffffffffffffffffffffffffffffffffffffffff16836040518363ffffffff1660e01b8152600401610f5c9291906145da565b602060405180830381600087803b158015610f7657600080fd5b505af1158015610f8a573d6000803e3d6000fd5b505050506040513d601f19601f82011682018060405250810190610fae91906141e8565b506000600f60009054906101000a900473ffffffffffffffffffffffffffffffffffffffff1673ffffffffffffffffffffffffffffffffffffffff16630b4225066001610ff9610a05565b036040518263ffffffff1660e01b815260040161101691906146c9565b602060405180830381600087803b15801561103057600080fd5b505af1158015611044573d6000803e3d6000fd5b505050506040513d601f19601f82011682018060405250810190611068919061436b565b9050600f60009054906101000a900473ffffffffffffffffffffffffffffffffffffffff1673ffffffffffffffffffffffffffffffffffffffff166307cff6f2308386866040518563ffffffff1660e01b81526004016110cb9493929190614603565b600060405180830381600087803b1580156110e557600080fd5b505af11580156110f9573d6000803e3d6000fd5b5050505050505050565b61111461110e61237b565b82612451565b611169576040517f08c379a0000000000000000000000000000000000000000000000000000000008152600401808060200182810382526031815260200180614caa6031913960400191505060405180910390fd5b611174838383612545565b505050565b6000806000838152602001908152602001600020600201549050919050565b600d81815481106111a857600080fd5b90600052602060002090600802016000915090508060000160009054906101000a900473ffffffffffffffffffffffffffffffffffffffff1690806001018054600181600116156101000203166002900480601f01602080910402602001604051908101604052809291908181526020018280546001816001161561010002031660029004801561127a5780601f1061124f5761010080835404028352916020019161127a565b820191906000526020600020905b81548152906001019060200180831161125d57829003601f168201915b505050505090806002016040518060800160405290816000820160009054906101000a900460ff1660ff1660ff1681526020016000820160019054906101000a900460ff1660ff1660ff1681526020016000820160029054906101000a900461ffff1661ffff1661ffff1681526020016000820160049054906101000a900460ff16600381111561130757fe5b600381111561131257fe5b8152505090806003016040518060800160405290816000820160009054906101000a900460ff1660ff1660ff1681526020016000820160019054906101000a900460ff1660ff1660ff1681526020016000820160029054906101000a900461ffff1661ffff1661ffff1681526020016000820160049054906101000a900460ff16600381111561139e57fe5b60038111156113a957fe5b8152505090806004016040518060800160405290816000820160009054906101000a900460ff1660ff1660ff1681526020016000820160019054906101000a900460ff1660ff1660ff1681526020016000820160029054906101000a900461ffff1661ffff1661ffff1681526020016000820160049054906101000a900460ff16600381111561143557fe5b600381111561144057fe5b8152505090806005016040518060800160405290816000820160009054906101000a900460ff1660ff1660ff1681526020016000820160019054906101000a900460ff1660ff1660ff1681526020016000820160029054906101000a900461ffff1661ffff1661ffff1681526020016000820160049054906101000a900460ff1660038111156114cc57fe5b60038111156114d757fe5b81525050908060060154908060070154905088565b6115126000808481526020019081526020016000206002015461150d61237b565b611b09565b611567576040517f08c379a000000000000000000000000000000000000000000000000000000000815260040180806020018281038252602f815260200180614a13602f913960400191505060405180910390fd5b6115718282612788565b5050565b60006115c882600260008673ffffffffffffffffffffffffffffffffffffffff1673ffffffffffffffffffffffffffffffffffffffff16815260200190815260200160002061281b90919063ffffffff16565b905092915050565b6115d861237b565b73ffffffffffffffffffffffffffffffffffffffff168173ffffffffffffffffffffffffffffffffffffffff161461165b576040517f08c379a000000000000000000000000000000000000000000000000000000000815260040180806020018281038252602f815260200180614d88602f913960400191505060405180910390fd5b6116658282612835565b5050565b60006116748261235e565b61167d57600080fd5b600e6000838152602001908152602001600020549050919050565b6116c97f65d7a28e3265b37a6474929f336521b332c1681b933f6cb9f3376673440d862a6116c461237b565b611b09565b61171e576040517f08c379a0000000000000000000000000000000000000000000000000000000008152600401808060200182810382526040815260200180614d486040913960400191505060405180910390fd5b6117266128c8565b565b61174383838360405180602001604052806000815250611e42565b505050565b61175961175361237b565b82612451565b6117ae576040517f08c379a0000000000000000000000000000000000000000000000000000000008152600401808060200182810382526030815260200180614d186030913960400191505060405180910390fd5b6117b7816129bb565b50565b6000806117d1836003612af590919063ffffffff16565b50905080915050919050565b6000600b60009054906101000a900460ff16905090565b600061182482604051806060016040528060298152602001614bba602991396003612b219092919063ffffffff16565b9050919050565b61185c7f9f2df0fed2c77648de5860a4cc508cd0818c85b8b8a1ab4ceeef8d981c8956a661185761237b565b611b09565b6118b1576040517f08c379a000000000000000000000000000000000000000000000000000000000815260040180806020018281038252603d815260200180614cdb603d913960400191505060405180910390fd5b6118c4816118bf600c612b40565b612b4e565b6118ce600c612d42565b50565b6060600a8054600181600116156101000203166002900480601f0160208091040260200160405190810160405280929190818152602001828054600181600116156101000203166002900480156119695780601f1061193e57610100808354040283529160200191611969565b820191906000526020600020905b81548152906001019060200180831161194c57829003601f168201915b5050505050905090565b60008073ffffffffffffffffffffffffffffffffffffffff168273ffffffffffffffffffffffffffffffffffffffff1614156119fa576040517f08c379a000000000000000000000000000000000000000000000000000000000815260040180806020018281038252602a815260200180614b90602a913960400191505060405180910390fd5b611a41600260008473ffffffffffffffffffffffffffffffffffffffff1673ffffffffffffffffffffffffffffffffffffffff168152602001908152602001600020612d58565b9050919050565b611a797f65d7a28e3265b37a6474929f336521b332c1681b933f6cb9f3376673440d862a611a7461237b565b611b09565b611ace576040517f08c379a000000000000000000000000000000000000000000000000000000000815260040180806020018281038252603e815260200180614a74603e913960400191505060405180910390fd5b611ad6612d6d565b565b6000611b0182600080868152602001908152602001600020600001612e6190919063ffffffff16565b905092915050565b6000611b3282600080868152602001908152602001600020600001612e7b90919063ffffffff16565b905092915050565b606060088054600181600116156101000203166002900480601f016020809104026020016040519081016040528092919081815260200182805460018160011615610100020316600290048015611bd25780601f10611ba757610100808354040283529160200191611bd2565b820191906000526020600020905b815481529060010190602001808311611bb557829003601f168201915b5050505050905090565b6000801b81565b611beb61237b565b73ffffffffffffffffffffffffffffffffffffffff168273ffffffffffffffffffffffffffffffffffffffff161415611c8c576040517f08c379a00000000000000000000000000000000000000000000000000000000081526004018080602001828103825260198152602001807f4552433732313a20617070726f766520746f2063616c6c65720000000000000081525060200191505060405180910390fd5b8060066000611c9961237b565b73ffffffffffffffffffffffffffffffffffffffff1673ffffffffffffffffffffffffffffffffffffffff16815260200190815260200160002060008473ffffffffffffffffffffffffffffffffffffffff1673ffffffffffffffffffffffffffffffffffffffff16815260200190815260200160002060006101000a81548160ff0219169083151502179055508173ffffffffffffffffffffffffffffffffffffffff16611d4661237b565b73ffffffffffffffffffffffffffffffffffffffff167f17307eab39ab6107e8899845ad3d59bd9653f200f220920489ca2b5937696c318360405180821515815260200191505060405180910390a35050565b611da2826117f4565b73ffffffffffffffffffffffffffffffffffffffff163373ffffffffffffffffffffffffffffffffffffffff1614611dd957600080fd5b817f8ec06c2117d45dcb6bcb6ecf8918414a7ff1cb1ed07da8175e2cf638d0f4777f600e60008581526020019081526020016000205483604051611e1e92919061467e565b60405180910390a280600e6000848152602001908152602001600020819055505050565b611e53611e4d61237b565b83612451565b611ea8576040517f08c379a0000000000000000000000000000000000000000000000000000000008152600401808060200182810382526031815260200180614caa6031913960400191505060405180910390fd5b611eb484848484612eab565b50505050565b6060611ec58261235e565b611f1a576040517f08c379a000000000000000000000000000000000000000000000000000000000815260040180806020018281038252602f815260200180614c5a602f913960400191505060405180910390fd5b6060600960008481526020019081526020016000208054600181600116156101000203166002900480601f016020809104026020016040519081016040528092919081815260200182805460018160011615610100020316600290048015611fc35780601f10611f9857610100808354040283529160200191611fc3565b820191906000526020600020905b815481529060010190602001808311611fa657829003601f168201915b505050505090506000600a8054600181600116156101000203166002900490501415611ff2578091505061219e565b6000815111156120cb57600a81604051602001808380546001816001161561010002031660029004801561205d5780601f1061203b57610100808354040283529182019161205d565b820191906000526020600020905b815481529060010190602001808311612049575b505082805190602001908083835b6020831061208e578051825260208201915060208101905060208303925061206b565b6001836020036101000a0380198251168184511680821785525050505050509050019250505060405160208183030381529060405291505061219e565b600a6120d684612f1d565b60405160200180838054600181600116156101000203166002900480156121345780601f10612112576101008083540402835291820191612134565b820191906000526020600020905b815481529060010190602001808311612120575b505082805190602001908083835b602083106121655780518252602082019150602081019050602083039250612142565b6001836020036101000a038019825116818451168082178552505050505050905001925050506040516020818303038152906040529150505b919050565b60006121c2600080848152602001908152602001600020600001613064565b9050919050565b7f9f2df0fed2c77648de5860a4cc508cd0818c85b8b8a1ab4ceeef8d981c8956a681565b6122136000808481526020019081526020016000206002015461220e61237b565b611b09565b612268576040517f08c379a0000000000000000000000000000000000000000000000000000000008152600401808060200182810382526030815260200180614b286030913960400191505060405180910390fd5b6122728282612835565b5050565b7f65d7a28e3265b37a6474929f336521b332c1681b933f6cb9f3376673440d862a81565b6000600660008473ffffffffffffffffffffffffffffffffffffffff1673ffffffffffffffffffffffffffffffffffffffff16815260200190815260200160002060008373ffffffffffffffffffffffffffffffffffffffff1673ffffffffffffffffffffffffffffffffffffffff16815260200190815260200160002060009054906101000a900460ff16905092915050565b6000612356836000018373ffffffffffffffffffffffffffffffffffffffff1660001b613079565b905092915050565b60006123748260036130e990919063ffffffff16565b9050919050565b600033905090565b816005600083815260200190815260200160002060006101000a81548173ffffffffffffffffffffffffffffffffffffffff021916908373ffffffffffffffffffffffffffffffffffffffff160217905550808273ffffffffffffffffffffffffffffffffffffffff166123f6836117f4565b73ffffffffffffffffffffffffffffffffffffffff167f8c5be1e5ebec7d5bd14f71427d1e84f3dd0314c0f7b2291e5b200ac8c7c3b92560405160405180910390a45050565b600061244a82600001613103565b9050919050565b600061245c8261235e565b6124b1576040517f08c379a000000000000000000000000000000000000000000000000000000000815260040180806020018281038252602c815260200180614afc602c913960400191505060405180910390fd5b60006124bc836117f4565b90508073ffffffffffffffffffffffffffffffffffffffff168473ffffffffffffffffffffffffffffffffffffffff16148061252b57508373ffffffffffffffffffffffffffffffffffffffff1661251384610826565b73ffffffffffffffffffffffffffffffffffffffff16145b8061253c575061253b818561229a565b5b91505092915050565b8273ffffffffffffffffffffffffffffffffffffffff16612565826117f4565b73ffffffffffffffffffffffffffffffffffffffff16146125d1576040517f08c379a0000000000000000000000000000000000000000000000000000000008152600401808060200182810382526029815260200180614c316029913960400191505060405180910390fd5b600073ffffffffffffffffffffffffffffffffffffffff168273ffffffffffffffffffffffffffffffffffffffff161415612657576040517f08c379a0000000000000000000000000000000000000000000000000000000008152600401808060200182810382526024815260200180614ab26024913960400191505060405180910390fd5b612662838383613114565b61266d600082612383565b6126be81600260008673ffffffffffffffffffffffffffffffffffffffff1673ffffffffffffffffffffffffffffffffffffffff16815260200190815260200160002061312490919063ffffffff16565b5061271081600260008573ffffffffffffffffffffffffffffffffffffffff1673ffffffffffffffffffffffffffffffffffffffff16815260200190815260200160002061313e90919063ffffffff16565b50612727818360036131589092919063ffffffff16565b50808273ffffffffffffffffffffffffffffffffffffffff168473ffffffffffffffffffffffffffffffffffffffff167fddf252ad1be2c89b69c2b068fc378daa952ba7f163c4a11628f55a4df523b3ef60405160405180910390a4505050565b6127af8160008085815260200190815260200160002060000161232e90919063ffffffff16565b15612817576127bc61237b565b73ffffffffffffffffffffffffffffffffffffffff168173ffffffffffffffffffffffffffffffffffffffff16837f2f8788117e7eff1d82e926ec794901d17c78024a50270940304540a733656f0d60405160405180910390a45b5050565b600061282a836000018361318d565b60001c905092915050565b61285c8160008085815260200190815260200160002060000161321090919063ffffffff16565b156128c45761286961237b565b73ffffffffffffffffffffffffffffffffffffffff168173ffffffffffffffffffffffffffffffffffffffff16837ff6391f5c32d9c69d2a47ea670b442974b53935d1edc7fd64eb21e047a839171b60405160405180910390a45b5050565b600b60009054906101000a900460ff1661294a576040517f08c379a00000000000000000000000000000000000000000000000000000000081526004018080602001828103825260148152602001807f5061757361626c653a206e6f742070617573656400000000000000000000000081525060200191505060405180910390fd5b6000600b60006101000a81548160ff0219169083151502179055507f5db9ee0a495bf2e6ff9c91a7834c1ba4fdd244a5e8aa4e537bd38aeae4b073aa61298e61237b565b604051808273ffffffffffffffffffffffffffffffffffffffff16815260200191505060405180910390a1565b60006129c6826117f4565b90506129d481600084613114565b6129df600083612383565b60006009600084815260200190815260200160002080546001816001161561010002031660029004905014612a2e57600960008381526020019081526020016000206000612a2d9190613cd7565b5b612a7f82600260008473ffffffffffffffffffffffffffffffffffffffff1673ffffffffffffffffffffffffffffffffffffffff16815260200190815260200160002061312490919063ffffffff16565b50612a9482600361324090919063ffffffff16565b5081600073ffffffffffffffffffffffffffffffffffffffff168273ffffffffffffffffffffffffffffffffffffffff167fddf252ad1be2c89b69c2b068fc378daa952ba7f163c4a11628f55a4df523b3ef60405160405180910390a45050565b600080600080612b08866000018661325a565b915091508160001c8160001c9350935050509250929050565b6000612b34846000018460001b846132f3565b60001c90509392505050565b600081600001549050919050565b600073ffffffffffffffffffffffffffffffffffffffff168273ffffffffffffffffffffffffffffffffffffffff161415612bf1576040517f08c379a00000000000000000000000000000000000000000000000000000000081526004018080602001828103825260208152602001807f4552433732313a206d696e7420746f20746865207a65726f206164647265737381525060200191505060405180910390fd5b612bfa8161235e565b15612c6d576040517f08c379a000000000000000000000000000000000000000000000000000000000815260040180806020018281038252601c8152602001807f4552433732313a20746f6b656e20616c7265616479206d696e7465640000000081525060200191505060405180910390fd5b612c7960008383613114565b612cca81600260008573ffffffffffffffffffffffffffffffffffffffff1673ffffffffffffffffffffffffffffffffffffffff16815260200190815260200160002061313e90919063ffffffff16565b50612ce1818360036131589092919063ffffffff16565b50808273ffffffffffffffffffffffffffffffffffffffff16600073ffffffffffffffffffffffffffffffffffffffff167fddf252ad1be2c89b69c2b068fc378daa952ba7f163c4a11628f55a4df523b3ef60405160405180910390a45050565b6001816000016000828254019250508190555050565b6000612d66826000016133e9565b9050919050565b600b60009054906101000a900460ff1615612df0576040517f08c379a00000000000000000000000000000000000000000000000000000000081526004018080602001828103825260108152602001807f5061757361626c653a207061757365640000000000000000000000000000000081525060200191505060405180910390fd5b6001600b60006101000a81548160ff0219169083151502179055507f62e78cea01bee320cd4e420270b5ea74000d11b0c9f74754ebdbfc544b05a258612e3461237b565b604051808273ffffffffffffffffffffffffffffffffffffffff16815260200191505060405180910390a1565b6000612e70836000018361318d565b60001c905092915050565b6000612ea3836000018373ffffffffffffffffffffffffffffffffffffffff1660001b6133fa565b905092915050565b612eb6848484612545565b612ec28484848461341d565b612f17576040517f08c379a0000000000000000000000000000000000000000000000000000000008152600401808060200182810382526032815260200180614a426032913960400191505060405180910390fd5b50505050565b60606000821415612f65576040518060400160405280600181526020017f3000000000000000000000000000000000000000000000000000000000000000815250905061305f565b600082905060005b60008214612f8f578080600101915050600a8281612f8757fe5b049150612f6d565b60608167ffffffffffffffff81118015612fa857600080fd5b506040519080825280601f01601f191660200182016040528015612fdb5781602001600182028036833780820191505090505b50905060006001830390508593505b6000841461305757600a8481612ffc57fe5b0660300160f81b8282806001900393508151811061301657fe5b60200101907effffffffffffffffffffffffffffffffffffffffffffffffffffffffffffff1916908160001a905350600a848161304f57fe5b049350612fea565b819450505050505b919050565b6000613072826000016133e9565b9050919050565b600061308583836133fa565b6130de5782600001829080600181540180825580915050600190039060005260206000200160009091909190915055826000018054905083600101600084815260200190815260200160002081905550600190506130e3565b600090505b92915050565b60006130fb836000018360001b613636565b905092915050565b600081600001805490509050919050565b61311f838383613659565b505050565b6000613136836000018360001b6136c7565b905092915050565b6000613150836000018360001b613079565b905092915050565b6000613184846000018460001b8473ffffffffffffffffffffffffffffffffffffffff1660001b6137af565b90509392505050565b6000818360000180549050116131ee576040517f08c379a00000000000000000000000000000000000000000000000000000000081526004018080602001828103825260228152602001806149c66022913960400191505060405180910390fd5b8260000182815481106131fd57fe5b9060005260206000200154905092915050565b6000613238836000018373ffffffffffffffffffffffffffffffffffffffff1660001b6136c7565b905092915050565b6000613252836000018360001b61388b565b905092915050565b600080828460000180549050116132bc576040517f08c379a0000000000000000000000000000000000000000000000000000000008152600401808060200182810382526022815260200180614be36022913960400191505060405180910390fd5b60008460000184815481106132cd57fe5b906000526020600020906002020190508060000154816001015492509250509250929050565b600080846001016000858152602001908152602001600020549050600081141583906133ba576040517f08c379a00000000000000000000000000000000000000000000000000000000081526004018080602001828103825283818151815260200191508051906020019080838360005b8381101561337f578082015181840152602081019050613364565b50505050905090810190601f1680156133ac5780820380516001836020036101000a031916815260200191505b509250505060405180910390fd5b508460000160018203815481106133cd57fe5b9060005260206000209060020201600101549150509392505050565b600081600001805490509050919050565b600080836001016000848152602001908152602001600020541415905092915050565b600061343e8473ffffffffffffffffffffffffffffffffffffffff166139a4565b61344b576001905061362e565b60606135b563150b7a0260e01b61346061237b565b888787604051602401808573ffffffffffffffffffffffffffffffffffffffff1681526020018473ffffffffffffffffffffffffffffffffffffffff16815260200183815260200180602001828103825283818151815260200191508051906020019080838360005b838110156134e45780820151818401526020810190506134c9565b50505050905090810190601f1680156135115780820380516001836020036101000a031916815260200191505b5095505050505050604051602081830303815290604052907bffffffffffffffffffffffffffffffffffffffffffffffffffffffff19166020820180517bffffffffffffffffffffffffffffffffffffffffffffffffffffffff8381831617835250505050604051806060016040528060328152602001614a42603291398773ffffffffffffffffffffffffffffffffffffffff166139b79092919063ffffffff16565b905060008180602001905160208110156135ce57600080fd5b8101908080519060200190929190505050905063150b7a0260e01b7bffffffffffffffffffffffffffffffffffffffffffffffffffffffff1916817bffffffffffffffffffffffffffffffffffffffffffffffffffffffff191614925050505b949350505050565b600080836001016000848152602001908152602001600020541415905092915050565b6136648383836139cf565b61366c6117dd565b156136c2576040517f08c379a000000000000000000000000000000000000000000000000000000000815260040180806020018281038252602b8152602001806149e8602b913960400191505060405180910390fd5b505050565b600080836001016000848152602001908152602001600020549050600081146137a3576000600182039050600060018660000180549050039050600086600001828154811061371257fe5b906000526020600020015490508087600001848154811061372f57fe5b906000526020600020018190555060018301876001016000838152602001908152602001600020819055508660000180548061376757fe5b600190038181906000526020600020016000905590558660010160008781526020019081526020016000206000905560019450505050506137a9565b60009150505b92915050565b600080846001016000858152602001908152602001600020549050600081141561385657846000016040518060400160405280868152602001858152509080600181540180825580915050600190039060005260206000209060020201600090919091909150600082015181600001556020820151816001015550508460000180549050856001016000868152602001908152602001600020819055506001915050613884565b8285600001600183038154811061386957fe5b90600052602060002090600202016001018190555060009150505b9392505050565b6000808360010160008481526020019081526020016000205490506000811461399857600060018203905060006001866000018054905003905060008660000182815481106138d657fe5b90600052602060002090600202019050808760000184815481106138f657fe5b906000526020600020906002020160008201548160000155600182015481600101559050506001830187600101600083600001548152602001908152602001600020819055508660000180548061394957fe5b600190038181906000526020600020906002020160008082016000905560018201600090555050905586600101600087815260200190815260200160002060009055600194505050505061399e565b60009150505b92915050565b600080823b905060008111915050919050565b60606139c684846000856139d4565b90509392505050565b505050565b606082471015613a2f576040517f08c379a0000000000000000000000000000000000000000000000000000000008152600401808060200182810382526026815260200180614ad66026913960400191505060405180910390fd5b613a38856139a4565b613aaa576040517f08c379a000000000000000000000000000000000000000000000000000000000815260040180806020018281038252601d8152602001807f416464726573733a2063616c6c20746f206e6f6e2d636f6e747261637400000081525060200191505060405180910390fd5b600060608673ffffffffffffffffffffffffffffffffffffffff1685876040518082805190602001908083835b60208310613afa5780518252602082019150602081019050602083039250613ad7565b6001836020036101000a03801982511681845116808217855250505050505090500191505060006040518083038185875af1925050503d8060008114613b5c576040519150601f19603f3d011682016040523d82523d6000602084013e613b61565b606091505b5091509150613b71828286613b7d565b92505050949350505050565b60608315613b8d57829050613c42565b600083511115613ba05782518084602001fd5b816040517f08c379a00000000000000000000000000000000000000000000000000000000081526004018080602001828103825283818151815260200191508051906020019080838360005b83811015613c07578082015181840152602081019050613bec565b50505050905090810190601f168015613c345780820380516001836020036101000a031916815260200191505b509250505060405180910390fd5b9392505050565b828054600181600116156101000203166002900490600052602060002090601f016020900481019282613c7f5760008555613cc6565b82601f10613c9857805160ff1916838001178555613cc6565b82800160010185558215613cc6579182015b82811115613cc5578251825591602001919060010190613caa565b5b509050613cd39190613d1f565b5090565b50805460018160011615610100020316600290046000825580601f10613cfd5750613d1c565b601f016020900490600052602060002090810190613d1b9190613d1f565b5b50565b5b80821115613d38576000816000905550600101613d20565b5090565b600081359050613d4b81614914565b92915050565b600082601f830112613d6257600080fd5b6002613d75613d7082614715565b6146e4565b91508183856080840282011115613d8b57600080fd5b60005b83811015613dbb5781613da18882613ed6565b845260208401935060808301925050600181019050613d8e565b5050505092915050565b600081359050613dd48161492b565b92915050565b600081519050613de98161492b565b92915050565b600081359050613dfe81614942565b92915050565b600081359050613e1381614959565b92915050565b600082601f830112613e2a57600080fd5b8135613e3d613e388261473b565b6146e4565b91508082526020830160208301858383011115613e5957600080fd5b613e648382846148ab565b50505092915050565b600081359050613e7c81614970565b92915050565b600082601f830112613e9357600080fd5b8135613ea6613ea18261476b565b6146e4565b91508082526020830160208301858383011115613ec257600080fd5b613ecd8382846148ab565b50505092915050565b600060808284031215613ee857600080fd5b613ef260806146e4565b90506000613f028482850161402c565b6000830152506020613f168482850161402c565b6020830152506040613f2a84828501613fed565b6040830152506060613f3e84828501613e6d565b60608301525092915050565b60006102608284031215613f5d57600080fd5b613f6760a06146e4565b90506000613f7784828501613d3c565b600083015250602082013567ffffffffffffffff811115613f9757600080fd5b613fa384828501613e82565b6020830152506040613fb784828501613d51565b604083015250610140613fcc84828501613d51565b606083015250610240613fe184828501614002565b60808301525092915050565b600081359050613ffc81614980565b92915050565b60008135905061401181614997565b92915050565b60008151905061402681614997565b92915050565b60008135905061403b816149ae565b92915050565b60006020828403121561405357600080fd5b600061406184828501613d3c565b91505092915050565b6000806040838503121561407d57600080fd5b600061408b85828601613d3c565b925050602061409c85828601613d3c565b9150509250929050565b6000806000606084860312156140bb57600080fd5b60006140c986828701613d3c565b93505060206140da86828701613d3c565b92505060406140eb86828701614002565b9150509250925092565b6000806000806080858703121561410b57600080fd5b600061411987828801613d3c565b945050602061412a87828801613d3c565b935050604061413b87828801614002565b925050606085013567ffffffffffffffff81111561415857600080fd5b61416487828801613e19565b91505092959194509250565b6000806040838503121561418357600080fd5b600061419185828601613d3c565b92505060206141a285828601613dc5565b9150509250929050565b600080604083850312156141bf57600080fd5b60006141cd85828601613d3c565b92505060206141de85828601614002565b9150509250929050565b6000602082840312156141fa57600080fd5b600061420884828501613dda565b91505092915050565b60006020828403121561422357600080fd5b600061423184828501613def565b91505092915050565b6000806040838503121561424d57600080fd5b600061425b85828601613def565b925050602061426c85828601613d3c565b9150509250929050565b6000806040838503121561428957600080fd5b600061429785828601613def565b92505060206142a885828601614002565b9150509250929050565b6000602082840312156142c457600080fd5b60006142d284828501613e04565b91505092915050565b6000806000606084860312156142f057600080fd5b600084013567ffffffffffffffff81111561430a57600080fd5b61431686828701613f4a565b935050602061432786828701613d3c565b925050604061433886828701614002565b9150509250925092565b60006020828403121561435457600080fd5b600061436284828501614002565b91505092915050565b60006020828403121561437d57600080fd5b600061438b84828501614017565b91505092915050565b600080604083850312156143a757600080fd5b60006143b585828601614002565b92505060206143c685828601613def565b9150509250929050565b6143d981614863565b82525050565b6143e8816147b7565b82525050565b6143f7816147c9565b82525050565b614406816147d5565b82525050565b61441581614875565b82525050565b60006144268261479b565b61443081856147a6565b93506144408185602086016148ba565b614449816148ef565b840191505092915050565b60808201600082015161446a60008501826144c7565b50602082015161447d60208501826144c7565b50604082015161449060408501826144a9565b5060608201516144a3606085018261440c565b50505050565b6144b28161481e565b82525050565b6144c18161484c565b82525050565b6144d081614856565b82525050565b60006020820190506144eb60008301846143df565b92915050565b600060408201905061450660008301856143d0565b61451360208301846143df565b9392505050565b600060608201905061452f60008301866143d0565b61453c60208301856143df565b61454960408301846144b8565b949350505050565b600061028082019050614567600083018b6143df565b8181036020830152614579818a61441b565b90506145886040830189614454565b61459560c0830188614454565b6145a3610140830187614454565b6145b16101c0830186614454565b6145bf6102408301856144b8565b6145cd6102608301846144b8565b9998505050505050505050565b60006040820190506145ef60008301856143df565b6145fc60208301846144b8565b9392505050565b600060808201905061461860008301876143df565b61462560208301866144b8565b61463260408301856143df565b61463f60608301846144b8565b95945050505050565b600060208201905061465d60008301846143ee565b92915050565b600060208201905061467860008301846143fd565b92915050565b600060408201905061469360008301856143fd565b6146a060208301846143fd565b9392505050565b600060208201905081810360008301526146c1818461441b565b905092915050565b60006020820190506146de60008301846144b8565b92915050565b6000604051905081810181811067ffffffffffffffff8211171561470b5761470a6148ed565b5b8060405250919050565b600067ffffffffffffffff8211156147305761472f6148ed565b5b602082029050919050565b600067ffffffffffffffff821115614756576147556148ed565b5b601f19601f8301169050602081019050919050565b600067ffffffffffffffff821115614786576147856148ed565b5b601f19601f8301169050602081019050919050565b600081519050919050565b600082825260208201905092915050565b60006147c28261482c565b9050919050565b60008115159050919050565b6000819050919050565b60007fffffffff0000000000000000000000000000000000000000000000000000000082169050919050565b600081905061481982614900565b919050565b600061ffff82169050919050565b600073ffffffffffffffffffffffffffffffffffffffff82169050919050565b6000819050919050565b600060ff82169050919050565b600061486e82614887565b9050919050565b60006148808261480b565b9050919050565b600061489282614899565b9050919050565b60006148a48261482c565b9050919050565b82818337600083830152505050565b60005b838110156148d85780820151818401526020810190506148bd565b838111156148e7576000848401525b50505050565bfe5b6000601f19601f8301169050919050565b60048110614911576149106148ed565b5b50565b61491d816147b7565b811461492857600080fd5b50565b614934816147c9565b811461493f57600080fd5b50565b61494b816147d5565b811461495657600080fd5b50565b614962816147df565b811461496d57600080fd5b50565b6004811061497d57600080fd5b50565b6149898161481e565b811461499457600080fd5b50565b6149a08161484c565b81146149ab57600080fd5b50565b6149b781614856565b81146149c257600080fd5b5056fe456e756d657261626c655365743a20696e646578206f7574206f6620626f756e64734552433732315061757361626c653a20746f6b656e207472616e73666572207768696c6520706175736564416363657373436f6e74726f6c3a2073656e646572206d75737420626520616e2061646d696e20746f206772616e744552433732313a207472616e7366657220746f206e6f6e20455243373231526563656976657220696d706c656d656e7465724552433732315072657365744d696e7465725061757365724175746f49643a206d75737420686176652070617573657220726f6c6520746f2070617573654552433732313a207472616e7366657220746f20746865207a65726f2061646472657373416464726573733a20696e73756666696369656e742062616c616e636520666f722063616c6c4552433732313a206f70657261746f7220717565727920666f72206e6f6e6578697374656e7420746f6b656e416363657373436f6e74726f6c3a2073656e646572206d75737420626520616e2061646d696e20746f207265766f6b654552433732313a20617070726f76652063616c6c6572206973206e6f74206f776e6572206e6f7220617070726f76656420666f7220616c6c4552433732313a2062616c616e636520717565727920666f7220746865207a65726f20616464726573734552433732313a206f776e657220717565727920666f72206e6f6e6578697374656e7420746f6b656e456e756d657261626c654d61703a20696e646578206f7574206f6620626f756e64734552433732313a20617070726f76656420717565727920666f72206e6f6e6578697374656e7420746f6b656e4552433732313a207472616e73666572206f6620746f6b656e2074686174206973206e6f74206f776e4552433732314d657461646174613a2055524920717565727920666f72206e6f6e6578697374656e7420746f6b656e4552433732313a20617070726f76616c20746f2063757272656e74206f776e65724552433732313a207472616e736665722063616c6c6572206973206e6f74206f776e6572206e6f7220617070726f7665644552433732315072657365744d696e7465725061757365724175746f49643a206d7573742068617665206d696e74657220726f6c6520746f206d696e744552433732314275726e61626c653a2063616c6c6572206973206e6f74206f776e6572206e6f7220617070726f7665644552433732315072657365744d696e7465725061757365724175746f49643a206d75737420686176652070617573657220726f6c6520746f20756e7061757365416363657373436f6e74726f6c3a2063616e206f6e6c792072656e6f756e636520726f6c657320666f722073656c66a2646970667358221220820e6278117762d43b41b410865c2b79c2382df671e5d77745130daa3e61cc5a64736f6c63430007050033",
  "immutableReferences": {},
  "source": "// SPDX-License-Identifier: MIT\npragma solidity ^0.7.5;\npragma abicoder v2;\n\nimport \"@openzeppelin/contracts/presets/ERC721PresetMinterPauserAutoId.sol\";\nimport \"./interfaces/IERC1948.sol\";\nimport \"./dBol.sol\";\nimport \"@openzeppelin/contracts/token/ERC20/IERC20.sol\";\n\n// @title Bill of Lading NFT Contract\n// @author Edward Amor\n// @notice Users should not directly interact with this contract\n// @dev All ERC721 functions are inherited from Openzeppelin ERC721 contract\ncontract BillOfLading is ERC721PresetMinterPauserAutoId, IERC1948 {\n    enum CardinalDirections {NORTH, EAST, SOUTH, WEST} // clock-wise ordering\n\n    /**\n        @param degree ranges from 0 to 90 for latitude and 0 to 180 for longitude\n        @param minute ranges from 0 to 60\n        @param second ranges from 0.0 to 60.0, since this can be a decimal number\n        and solidity only works with integers, we have to do some padding.\n        A standardized way to do this is simply provide a number within the range\n        of [0, 2 ^ 16 - 1], and to pad it with 3 zeros.\n        \n        Ex.\n        25.23 => 25230\n        59.98 => 59980\n        00.39 => 00390\n     */\n    struct GeoPosition {\n        uint8 degree;\n        uint8 minute;\n        uint16 second;\n        CardinalDirections cardinalDirection;\n    }\n\n    /**\n        @param quantity is the amount in MT (metric tons) since this is a decimal\n        we pad and make sure to leave the last 2 digits as the decimal numbers.\n\n        Ex. \n        28.1 MT => 2810\n        1289.32 MT => 128932\n     */\n    struct MintArgs {\n        address driver;\n        string serialNumber;\n        GeoPosition[2] origin;\n        GeoPosition[2] destination;\n        uint256 quantity;\n    }\n\n    struct Bill {\n        address driver;\n        string serialNumber;\n        GeoPosition originLatitude;\n        GeoPosition originLongitude;\n        GeoPosition destinationLatitude;\n        GeoPosition destinationLongitude;\n        uint256 quantity;\n        uint256 timestamp;\n    }\n\n    Bill[] public bills;\n    mapping(uint256 => bytes32) data;\n\n    DBol dBOLContract;\n\n    /*\n     *     bytes4(keccak256('readData()')) == 0x70a08231\n     *     bytes4(keccak256('ownerOf(uint256)')) == 0x6352211e\n     *\n     *     => 0x37ebbc03 ^ 0xa983d43f == 0x9e68683c\n     */\n    bytes4 private constant _INTERFACE_ID_ERC1948 = 0x9e68683c;\n\n    constructor(\n        string memory name,\n        string memory symbol,\n        string memory baseURI,\n        address dbolContract\n    ) public ERC721PresetMinterPauserAutoId(name, symbol, baseURI) {\n        _registerInterface(_INTERFACE_ID_ERC1948);\n        dBOLContract = DBol(dbolContract);\n    }\n\n    /// @notice Create a Bill of Lading for a shipment\n    /// @dev User facing function which creates a bill\n    function createBillOfLading(\n        MintArgs memory _args,\n        address _funding,\n        uint256 _value\n    ) public {\n        require(\n            IERC20(_funding).allowance(msg.sender, address(this)) >= _value\n        );\n        bills.push(\n            Bill({\n                driver: _args.driver,\n                serialNumber: _args.serialNumber,\n                originLatitude: _args.origin[0],\n                originLongitude: _args.origin[1],\n                destinationLatitude: _args.destination[0],\n                destinationLongitude: _args.destination[1],\n                quantity: _args.quantity,\n                timestamp: block.timestamp\n            })\n        );\n        mint(msg.sender);\n        IERC20(_funding).transferFrom(msg.sender, address(this), _value);\n        IERC20(_funding).approve(address(dBOLContract), _value);\n        uint256 childToken =\n            dBOLContract.createDBol(totalSupply() - 1);\n        dBOLContract.getERC20(address(this), childToken, _funding, _value);\n    }\n\n    /**\n     * @dev See `IERC1948.readData`.\n     *\n     * Requirements:\n     *\n     * - `tokenId` needs to exist.\n     */\n    function readData(uint256 tokenId)\n        external\n        view\n        override\n        returns (bytes32)\n    {\n        require(_exists(tokenId));\n        return data[tokenId];\n    }\n\n    /**\n     * @dev See `IERC1948.writeData`.\n     *\n     * Requirements:\n     *\n     * - `msg.sender` needs to be owner of `tokenId`.\n     */\n    function writeData(uint256 tokenId, bytes32 newData) external override {\n        require(msg.sender == ownerOf(tokenId));\n        emit DataUpdated(tokenId, data[tokenId], newData);\n        data[tokenId] = newData;\n    }\n}\n",
  "sourcePath": "/home/skelletor/projects/ethglobal/backend/contracts/BillOfLading.sol",
  "compiler": {
    "name": "solc",
    "version": "0.7.5+commit.eb77ed08.Emscripten.clang"
  },
  "schemaVersion": "3.3.3",
  "updatedAt": "2021-02-06T19:07:24.175Z",
  "networkType": "ethereum",
  "devdoc": {
    "kind": "dev",
    "methods": {
      "approve(address,uint256)": {
        "details": "See {IERC721-approve}."
      },
      "balanceOf(address)": {
        "details": "See {IERC721-balanceOf}."
      },
      "baseURI()": {
        "details": "Returns the base URI set via {_setBaseURI}. This will be automatically added as a prefix in {tokenURI} to each token's URI, or to the token ID if no specific URI is set for that token ID."
      },
      "burn(uint256)": {
        "details": "Burns `tokenId`. See {ERC721-_burn}. Requirements: - The caller must own `tokenId` or be an approved operator."
      },
      "createBillOfLading((address,string,(uint8,uint8,uint16,uint8)[2],(uint8,uint8,uint16,uint8)[2],uint256),address,uint256)": {
        "details": "User facing function which creates a bill"
      },
      "getApproved(uint256)": {
        "details": "See {IERC721-getApproved}."
      },
      "getRoleAdmin(bytes32)": {
        "details": "Returns the admin role that controls `role`. See {grantRole} and {revokeRole}. To change a role's admin, use {_setRoleAdmin}."
      },
      "getRoleMember(bytes32,uint256)": {
        "details": "Returns one of the accounts that have `role`. `index` must be a value between 0 and {getRoleMemberCount}, non-inclusive. Role bearers are not sorted in any particular way, and their ordering may change at any point. WARNING: When using {getRoleMember} and {getRoleMemberCount}, make sure you perform all queries on the same block. See the following https://forum.openzeppelin.com/t/iterating-over-elements-on-enumerableset-in-openzeppelin-contracts/2296[forum post] for more information."
      },
      "getRoleMemberCount(bytes32)": {
        "details": "Returns the number of accounts that have `role`. Can be used together with {getRoleMember} to enumerate all bearers of a role."
      },
      "grantRole(bytes32,address)": {
        "details": "Grants `role` to `account`. If `account` had not been already granted `role`, emits a {RoleGranted} event. Requirements: - the caller must have ``role``'s admin role."
      },
      "hasRole(bytes32,address)": {
        "details": "Returns `true` if `account` has been granted `role`."
      },
      "isApprovedForAll(address,address)": {
        "details": "See {IERC721-isApprovedForAll}."
      },
      "mint(address)": {
        "details": "Creates a new token for `to`. Its token ID will be automatically assigned (and available on the emitted {IERC721-Transfer} event), and the token URI autogenerated based on the base URI passed at construction. See {ERC721-_mint}. Requirements: - the caller must have the `MINTER_ROLE`."
      },
      "name()": {
        "details": "See {IERC721Metadata-name}."
      },
      "ownerOf(uint256)": {
        "details": "See {IERC721-ownerOf}."
      },
      "pause()": {
        "details": "Pauses all token transfers. See {ERC721Pausable} and {Pausable-_pause}. Requirements: - the caller must have the `PAUSER_ROLE`."
      },
      "paused()": {
        "details": "Returns true if the contract is paused, and false otherwise."
      },
      "readData(uint256)": {
        "details": "See `IERC1948.readData`. Requirements: - `tokenId` needs to exist."
      },
      "renounceRole(bytes32,address)": {
        "details": "Revokes `role` from the calling account. Roles are often managed via {grantRole} and {revokeRole}: this function's purpose is to provide a mechanism for accounts to lose their privileges if they are compromised (such as when a trusted device is misplaced). If the calling account had been granted `role`, emits a {RoleRevoked} event. Requirements: - the caller must be `account`."
      },
      "revokeRole(bytes32,address)": {
        "details": "Revokes `role` from `account`. If `account` had been granted `role`, emits a {RoleRevoked} event. Requirements: - the caller must have ``role``'s admin role."
      },
      "safeTransferFrom(address,address,uint256)": {
        "details": "See {IERC721-safeTransferFrom}."
      },
      "safeTransferFrom(address,address,uint256,bytes)": {
        "details": "See {IERC721-safeTransferFrom}."
      },
      "setApprovalForAll(address,bool)": {
        "details": "See {IERC721-setApprovalForAll}."
      },
      "supportsInterface(bytes4)": {
        "details": "See {IERC165-supportsInterface}. Time complexity O(1), guaranteed to always use less than 30 000 gas."
      },
      "symbol()": {
        "details": "See {IERC721Metadata-symbol}."
      },
      "tokenByIndex(uint256)": {
        "details": "See {IERC721Enumerable-tokenByIndex}."
      },
      "tokenOfOwnerByIndex(address,uint256)": {
        "details": "See {IERC721Enumerable-tokenOfOwnerByIndex}."
      },
      "tokenURI(uint256)": {
        "details": "See {IERC721Metadata-tokenURI}."
      },
      "totalSupply()": {
        "details": "See {IERC721Enumerable-totalSupply}."
      },
      "transferFrom(address,address,uint256)": {
        "details": "See {IERC721-transferFrom}."
      },
      "unpause()": {
        "details": "Unpauses all token transfers. See {ERC721Pausable} and {Pausable-_unpause}. Requirements: - the caller must have the `PAUSER_ROLE`."
      },
      "writeData(uint256,bytes32)": {
        "details": "See `IERC1948.writeData`. Requirements: - `msg.sender` needs to be owner of `tokenId`."
      }
    },
    "version": 1
  },
  "userdoc": {
    "kind": "user",
    "methods": {
      "createBillOfLading((address,string,(uint8,uint8,uint16,uint8)[2],(uint8,uint8,uint16,uint8)[2],uint256),address,uint256)": {
        "notice": "Create a Bill of Lading for a shipment"
      }
    },
    "version": 1
  }
}